:020000041000EA
:1000000000B5324B212058609868022188439860DF
:10001000D860186158612E4B002199600221596106
:100020000121F02299502B49196001219960352056
:1000300000F044F80222904214D00621196600F024
:1000400034F8196E01211966002018661A6600F04E
:100050002CF8196E196E196E052000F02FF8012189
:100060000842F9D1002199601B49196000215960AB
:100070001A491B48016001219960EB211966A021F2
:10008000196600F012F800219960164914480160C1
:100090000121996001BC002800D000471248134993
:1000A000086003C880F30888084703B5996A0420EC
:1000B0000142FBD001200142F8D103BD02B5186610
:1000C0001866FFF7F2FF186E186E02BD00000240BE
:1000D000000000180000070000035F00212200005C
:1000E000F4000018222000A00001001008ED00E03C
:1000F00000000000000000000000000074B24E7A12
:1001000000200420F7010010C3010010C5010010F9
:10011000C1010010C1010010C1010010C101001097
:10012000C1010010C1010010C1010010C701001081
:10013000C1010010C1010010C9010010CB01001065
:10014000CD010010CD010010CD010010CD01001037
:10015000CD010010CD010010CD010010CD01001027
:10016000CD010010CD010010CD010010CD01001017
:10017000CD010010CD010010CD010010CD01001007
:10018000CD010010CD010010CD010010CD010010F7
:10019000CD010010CD010010CD010010CD010010E7
:1001A000CD010010CD010010CD010010CD010010D7
:1001B000CD010010CD010010CD010010CD010010C7
:1001C00000BE00BE00BE00BE00BE00BE00F04BF888
:1001D000103800BEF2EB887158BE00107CBE0010D3
:1001E0003402001090A31AE700202149086006C8D5
:1001F00081F3088810471F48006800282FD10DA4FC
:100200000ECC002902D000F012F8F9E71A491B4A77
:10021000002000E001C19142FCD1194988471949E9
:1002200088471949884700BEFDE701C901C29A42C3
:10023000FBD370477CBE0010C0000020780C00206B
:1002400034CA0010000004200000042034CA00104A
:1002500000100420001004200000000070470B482C
:1002600003F0FCFB0047EFF30580C0B270470000CD
:1002700008ED00E0000000D0780C0020981000206D
:10028000B5240010C9050010712400105756000055
:1002900006005250ABB3605318B70010060052501E
:1002A000861C030228B70010060052505422A29D5B
:1002B00030B7001005005250DE65F46834CA0010F3
:1002C000F8B5C0460448054B10B5834203D0044B33
:1002D000002B00D0984710BD780C0020780C00202F
:1002E0000000000006480749091A8910CB0F591869
:1002F00010B5491003D0044B002B00D0984710BD17
:10030000780C0020780C00200000000010B5074C8D
:100310002378002B09D1FFF7D5FF054B002B02D026
:10032000044800E000BF0123237010BD780D0020B9
:100330000000000028A70010054B10B5002B03D0CB
:100340000449054800E000BFFFF7CCFF10BDC046E0
:10035000000000007C0D002028A7001010B50D48FB
:1003600005F0BCF80C4B1B6BDB0703D50B4A13687D
:10037000013B1360084B1B6B9B0703D5074A1368AF
:1003800001331360044B03221A63054A13680133D7
:10039000136010BD7CA70010000030508C0E0020B0
:1003A000680E002010B56446A369636122690123C9
:1003B00013615368DB05FCD4136AA361A369626906
:1003C0009B1AE360A169174805F088F8E1681648B0
:1003D00005F084F801F084FC02000B00134805F0DE
:1003E0007DF82068616803F0EFFE0022104B03F0F7
:1003F000E1FD00220F4B03F004FE00220E4B03F040
:1004000000FE03F08FFE0100A0600C4805F066F8C6
:100410000B4A0C4B2068616803F0CCFD20606160E2
:10042000012010BD00A800100CA8001018A8001092
:100430000000F03F0000E03F00407F4028A800108F
:100440007B14AE47E17A743FF0B591B0060003919A
:1004500017001D000024009402232A0005F098F9DB
:1004600000220121280000F029FC681C0022012143
:1004700000F024FC0B9480235B020893F8235B02BA
:100480000993C0231B030A93102208A904A804F0AF
:10049000E3FE3B000F333A001C32DB01120313432F
:1004A0000593102204A90CA804F0D6FE0F9B02931A
:1004B0002A4B029A1340EA0313430F930D9B0293B6
:1004C000274B029A13402D061D430D950E9B029358
:1004D000244B029A13409B009B080E93169B002B03
:1004E00011D180235B020C930CAB3A00039C2100DA
:1004F000300005F085F932680123A3409A43134385
:10050000336011B0F0BD052002F066F904F09CFDE7
:10051000051C0E20169B584304F09CFD011C281C52
:1005200004F073FD041C04F0B7FD85B2002D12D059
:10053000280004F089FD011C201C04F05CFD8721CB
:10054000C90504F078FD04F0A7FDC0B200022B0439
:1005500018430C90C8E70020F8E7C046FF7FF0FF83
:10056000FFFFFFE0FFFF0AFE30B583B00D0014006F
:1005700000F054FA2B002200054901A805F0B2F959
:10058000019800F061FA019804F048FE03B030BD14
:1005900044A7001030B585B00D1C140000F03EFAE1
:1005A000281C04F081FD009001912200054903A858
:1005B00005F098F9039800F047FA039804F02EFE2E
:1005C00005B030BD3CA7001070B5A6B00EAC2AAB8C
:1005D0001A9315A8864903000A0062CA62C322CA98
:1005E00022C3C460834B03611AA90AF08DF8002668
:1005F000E66004F07FFF80482061804905F0ACF898
:10060000050000960223020000212069FFF71CFF6D
:100610002069009604232A000121FFF715FF784C7A
:100620000096022306220021200005F0B1F80022E6
:100630000121062000F042FB00220121072000F0EA
:100640003DFB7049200005F087F805000D968023DA
:100650005B020A93F8235B020B93C0231B030C93EA
:1006600010220AA906A804F0F7FD2B001733ED01AC
:100670001B031D430795102206A922A804F0ECFDD8
:10068000259B614A1A40C0239B0213432593249B58
:1006900005935E4B059A134024935D49092000F0B1
:1006A0000FFC0121092000F0FBFB96235B00C02218
:1006B0009200E25022AB10220021200005F0A0F8A9
:1006C00023680125AB432B4323600421082000F05D
:1006D000DDFA504B80225A654F4A1A664F4B1B6811
:1006E0009D434F4B1D6000240FE04E4DA6007059F6
:1006F00000F0FEFA0123190072599140D02212062F
:10070000516271598B40936101340A2CEDDD00F088
:1007100035F900F063F9082001F086FA424800F04C
:100720007DF9424A0021002000F000F9404800F025
:100730008BF9404800F072F93F4800F085F93F49D5
:100740000B681B041B0C3E4A136009688023DB0402
:100750004B401B0C1B0413609623109300220023B4
:100760000E920F9315AC01231C4301F0A9F81CABAA
:100770000293002301930094FA229200002301F0D7
:100780005FF913E010931B041B0C2C490A685340BB
:100790001B041B0C2A4A136010988023DB001B1AD1
:1007A0001B0409684B401B0C1B04136014990422A2
:1007B0002448FFF7D9FE119803F09CFC0022224B3D
:1007C00003F01FFC0022214B03F0FDFB0022204B15
:1007D00003F017FC03F0E2FC011C04221D48FFF7A4
:1007E000D9FE109BFA2252009342CBDD1300C9E7D9
:1007F00028A70010A503001000002050BCA700107F
:100800000000305084A70010FF7FF0FFFFFF0AFEBA
:100810005D03001000000540FF030000500005408C
:1008200050100540B801002048A700104CA7001048
:1008300058A700106CA7001070A700105C000540BE
:100840005C10054074A70010000024400040AF4039
:1008500000004E4078A7001070B50B4E0124230015
:10086000726A9340D0252D06AB61052001F0DCF9BA
:100870002300326A93406B61052001F0D5F9336A99
:100880009C40AC6170BDC046B801002070B50E4EF2
:1008900001242300726A9340D0252D066B61052048
:1008A00001F0C2F92300326A93406B61052001F028
:1008B000BBF92300326A9340AB61052001F0B4F923
:1008C000736A9C40AC6170BDB8010020154BDB6AB7
:1008D000142B15D0282B21D0102B03D0124B5822CB
:1008E0001A601EE00F4B1B6B022B05D0042B18D196
:1008F0000D4B02221A6014E00B4B01221A6010E02B
:10090000084B1B6B022B05D0042B0AD1064B04228B
:100910001A6006E0044B03221A6002E0024B052233
:100920001A607047B8010020C80D002070B504009F
:100930000D00100000F082F9002D12D10E4B9A6AC2
:1009400001239340D02212069361002C11D1FFF7AE
:1009500083FF094B5A6A01239340D0221206936108
:1009600070BD054B9A6A01239340D0221206536151
:10097000EBE7FFF78BFFECE7B801002010B508208C
:1009800001F052F9104A00210020FFF7CFFF0820A4
:1009900001F04AF90D4A00210020FFF7C7FF0820A7
:1009A00001F042F90A4B1B6B012B07D0094A0021C9
:1009B0000020FFF7BBFFFFF789FF10BD064A0021AB
:1009C0000020FFF7B3FFF6E770A800107CA8001026
:1009D000B801002094A8001088A8001010B50820C5
:1009E00001F022F90A4A00210020FFF79FFF0820AA
:1009F00001F01AF9074A00210020FFF797FF0820AD
:100A000001F012F9044A00210020FFF78FFF10BD0A
:100A10004CA8001058A8001064A8001010B51022AF
:100A2000002105F0B7FD00F0BFF8064BDA6901239D
:100A30009340D02212065361FFF70EFF082001F009
:100A4000F3F810BDB801002070B50400514B1A68CE
:100A5000052A00D99BE093004F4AD3589F464F4840
:100A6000FFF7DCFF032001F0DFF8A05D00F09CF849
:100A7000FFF70CFF0135200005F06EFC2E00A842A8
:100A800000D886E0102DF0D1E9E70025F3E74448CF
:100A9000FFF7C4FF032001F0C7F8A05D00F084F861
:100AA000FFF7F4FE0135200005F056FC2E00A842A9
:100AB0006FD9202DEBD0302D08D0102DEDD1374837
:100AC000FFF7ACFF032001F0AFF8E6E73548FFF78A
:100AD000A5FF032001F0A8F8DFE70025E3E72F4892
:100AE000FFF79CFF032001F09FF8A05D00F05CF889
:100AF000FFF7CCFE0135200005F02EFC2E00A842A9
:100B000047D9142DF1D1EAE70025F4E72448FFF78F
:100B100085FFA05D00F048F8FFF7B8FE0135200022
:100B200005F01AFC2E00A84233D9282DEED03C2D1A
:100B300005D0142DEDD11948FFF770FFE9E71948EA
:100B4000FFF76CFFE5E70025E9E70025200005F049
:100B500003FCA8421DD9605D00F026F8FFF796FE61
:100B60000135F3E70D48FFF759FF032001F05CF86A
:100B7000A05D00F019F8FFF789FE0135200005F0AF
:100B8000EBFB2E00A84204D9102DF1D1EAE7002595
:100B9000F4E770BDC80D002034A8001074A7001041
:100BA00078A70010A0A8001010B588B0040000239A
:100BB00002930522002103A804F048FB6B46302273
:100BC000DA712E3A05A9200004F0F4FE05A805F01C
:100BD000C3FB0400072C07DC01226B46D91D02A8C9
:100BE00005F0EEFB0134F5E705A902A805F084FB4A
:100BF00002A805F0B1FB0138002309E09A000E4974
:100C0000515801228A40D02109068A6101330138F6
:100C100000280EDB02AA125C302AEFD0312AF5D16F
:100C20009A000549515801228A40D02109064A619B
:100C3000ECE708B010BDC046B801002010B50400B4
:100C400005F08AFB0138002309E09A000E4951584B
:100C500001228A40D02109068A6101330138002827
:100C60000DDB225C302AF0D0312AF6D19A000649F9
:100C7000515801228A40D02109064A61EDE703203C
:100C800000F0D2FF10BDC046B801002010B58300AF
:100C9000084A944663441C6840226240C0241440C1
:100CA0008022520113431C60C000034B9C466044E9
:100CB000416010BD04C001400040014080000B4B6A
:100CC0009C46604400290DD00823002A0CD0042241
:100CD0001343026853400C221340802252011043F8
:100CE000036070470023F0E70022F1E704C00140F1
:100CF00010B501238340D02212069362936105212F
:100D0000FFF7C4FF10BD0000EFF3108072B6034B75
:100D10001B68002BFBD0BFF35F8F70472C0100D006
:100D2000BFF35F8F024B00221A6080F31088704778
:100D30002C0100D070B505000E001400FFF7E4FF91
:100D4000F208AA1815780721314001238B402B4265
:100D500005D1DBB22B431370FFF7E2FF70BD31000A
:100D6000200001F023FC0000034B1B680220184008
:100D7000431E9841C0B2704700C0064000231F2B9D
:100D800008D8054A9A189200BFF35F8F00211160BE
:100D90000133F4E77047C04640000034054A10783C
:100DA000431CDBB21370172B02D9130010221A70E8
:100DB0007047C046F0010020074B9B681030800050
:100DC0001950BFF35F8FBFF35F8F044B0021196091
:100DD00082F310887047C04600ED00E0240100D087
:100DE00010B5091A0B1F0A4A94466144094A9142F8
:100DF00008D8DA0706D45B105B055B0D064818437C
:100E000080B210BD054B064A9921064801F034FB1B
:100E1000FC070000FE0F000000E0FFFFB0AA00107A
:100E2000C0A80010E0AA001010B5091A04394C0837
:100E3000090B08D14905490D064A11430180064BAB
:100E40002343438010BD054B054AA121054801F00D
:100E500013FBC04600F0FFFF00F8FFFF24A90010BD
:100E6000CCA80010E0AA001001238340034A1068B8
:100E70001840431E9841C0B27047C04600E100E0F0
:100E8000002904D0034B1860034B18607047034BD4
:100E90001860FBE780E200E000E100E080E100E0B4
:100EA00010B5012383401800FFF7EAFF10BD0000D2
:100EB000024B9B6810308000C058704700ED00E086
:100EC00070B504000D00EFF3108672B60C4B1B6872
:100ED000002BFBD0BFF35F8F2000FFF7E9FF094B2A
:100EE000984201D0A84205D1320029002000FFF726
:100EF00063FF70BD044B054A7C21054801F0BCFA34
:100F0000240100D0CD01001078AA0010A4A8001080
:100F1000E0AA0010F0B5C64600B584B001900D00FF
:100F2000EFF3108672B6554B1B68002BFBD0BFF356
:100F30005F8F534B9A68019C1034A300D758514BD4
:100F40009F4207D0AF4200D196E002974E4BFB1A6A
:100F50002F2B08D9320039000198FFF72DFF04B07C
:100F600004BC9046F0BD0198FFF77EFF039000217E
:100F70000198FFF795FFBFF35F8FFFF774F9011E2C
:100F800001D0844211D10123029C9C430020A3681C
:100F9000AB4212D00622A256002A0DDB53009B184A
:100FA0009A002000384CA418F1E72C21374B384A1E
:100FB000FF31384801F060FA2000AB4255D10623DA
:100FC000E3569846002B36DB5A00424491002E4BE4
:100FD0005B189A68A260DA79E2719B795BB2A371BF
:100FE000002B12DABD200002A08043465B00434480
:100FF0009A00254B9B18284A117899714346137023
:1010000003990198FFF74CFFA4E7201D1E4A8B1897
:101010001A1D9B88D90A1C2907D159054915023187
:1010200049005118FFF7DCFEDEE71C4B1C4AA721E4
:10103000184801F021FA002912D100280ED0FF2310
:101040008371184B8380144A1378A371164B0E4991
:10105000641A644163431B0D1370D1E7094FF2E733
:10106000201D1249FFF7E0FECAE76021104B084A35
:10107000FF31084801F000FA024F6BE7240100D06D
:1010800000ED00E0CD010010F40100204CAA00109A
:10109000F4A80010E0AA0010890E0020F8A90010A2
:1010A000E4A8001000BDFFFFAAAA00002E02002045
:1010B00070AA0010F8B50400012606432D4BF31A60
:1010C0002F2B28D8FFF7CFF800282BD0EFF310876D
:1010D00072B6294B1B68002BFBD0BFF35F8F274DE7
:1010E00022002449521A524155432D0D6DB2244B12
:1010F0009B6880001B58B3421BD00023032B32D8BF
:101100005A00D21891001B4A5218927952B2AA4240
:101110001FD00133F2E7C2211A4B1B4A49001B487A
:1011200001F0AAF988211A4B174AFF31174801F03C
:10113000A3F9134B9B68174A1A50174B1A78A271E0
:101140001D70BFF35F8F0C4B00221A6087F310886D
:10115000F8BD08495A00D618B0000818FF26867155
:101160000E4B8380E9E7CC210D4B074A4900074825
:1011700001F082F9F4010020240100D0AAAA0000A5
:1011800000ED00E010AA001008A90010E0AA00106D
:1011900038AA0010CD010010890E002000BDFFFF0D
:1011A00044AA00100022044B02E0044902C30132A9
:1011B000072AFAD97047C04600E400E080808080AA
:1011C000024B9C4661448900016070474000003436
:1011D0000A4B1A68EFF3108172B61368002BFCD02B
:1011E000BFF35F8F054B1B68BFF35F8F00221A6050
:1011F00081F3108840BF002000217047700E00204E
:1012000010B50C00CB68834207D108000B699847E2
:10121000002809D02068616810BD9621054B064A58
:101220004900064801F028F90023E360002000216E
:10123000F2E7C04600AE0010E4AB001014AE0010A0
:1012400070B505000C00080000F03EFD200000F025
:1012500021FE0849200000F061FDFFF79FFD064BCD
:101260009C466044800068602C75A400034BE550E8
:1012700070BDC0466115001040000034580E0020BB
:1012800010B5002922D003681B7B99421ED8174B4A
:101290009C466144090183689C4661440C68496826
:1012A000002A19D003681B7B9A4215D883680F481F
:1012B0008446624412019A181068536802000120A3
:1012C0008B4201D80ED00020C0B210BD084B094A95
:1012D0003B21094801F0D0F8054B064A3B2106485E
:1012E00001F0CAF8A242EFD8EDE7C046FFFFFF0FBA
:1012F00010AD001078AB001014AE001010B500292E
:101300001ED0037B99421BD84B005B18033B04683B
:10131000A4466344002919D0002A1DD0914221D04F
:10132000002A25D0047BA24222D8046850008018ED
:10133000033820188170197800291FD11A7010BD48
:10134000104B114A6821114801F096F8104B114AD0
:101350006F310E4801F090F80F4B0E4A70210B4888
:1013600001F08AF80D4B0B4A7121084801F084F80E
:10137000044B054A6821054801F07EF841701A7057
:10138000DDE7C04668AD001038AB001084AD00103A
:10139000D0AD001044AB0010DCAD0010E8AD001083
:1013A00070B506000D001400002914D0002A14D0D6
:1013B000806873689847002806D022002900300012
:1013C000FFF79CFF280007E02A0021003000FFF70C
:1013D00095FF200000E0100070BD0800FCE7000051
:1013E00070B5CE4600B583B00500009201930AABFC
:1013F0001C780BAB1B789946002C28D003685A7BCD
:10140000944209D10123002B1BD1002C3DD1200097
:1014100003B004BC914670BD002C0CD01A7B9442E2
:1014200009D81A6863001B19033BD3189B78002B5B
:10143000E9D00123E7E73F4B3F4A68213F4801F0ED
:101440001BF83F4B3F4A65213F4801F015F8036800
:101450009C7B002CD9D012D01A7B94420FD862000A
:101460001219033A19688C4662445178997300291D
:1014700000D1D9730023937053701370C5E72D4BBF
:101480002D4A68212D4800F0F7FF002C3BD02B6837
:101490001B7B9C4237D82D4BE3181B01AA6894464E
:1014A00063440099019A19605A60089A9A60099AEF
:1014B000DA602E68002C2CD031D0337B9C422ED8A1
:1014C00063001B19033B32689446634400229A7000
:1014D0005A701A70717B22003000FFF761FF707341
:1014E000844200D093E7287D009A019B00F05EFCC7
:1014F000061E02D04B46002B17D00C9B002B00D1B0
:1015000085E71E7083E7124B124A3B210E4800F01C
:10151000B3FF114B114AA521084800F0ADFF054B60
:10152000054A6821054800F0A7FF2868210000F05F
:1015300067FEE2E768AD001038AB001084AD001024
:1015400000AC0010B0AB001014AE0010FFFFFF0F96
:1015500010AD001078AB001010AE001058AB0010AA
:10156000F0B5DE4657464E464546E0B58BB009908D
:10157000002308938200B24BD7583D0052E0B14B94
:10158000B14A3F21B14800F077FFB14BB14A3B214E
:10159000B14800F071FF002B01D1002A68D1002171
:1015A000604600F023FEA04219D1326873680692AB
:1015B0000793B3689846F3689A464346002B14D0C5
:1015C000002C18D02B681B7B9C4214D8631EEA6841
:1015D000D35C08931B0218432861002015E09F4B41
:1015E0009F4A8C219C4800F047FF9E4B9C4A9021CB
:1015F000994800F041FF964B9B4A4021964800F0E5
:101600003BFF00239A46984600206B68BFF35F8F2C
:1016100000221A6087F310884346002B31D100283E
:1016200000D105E100F05CFB0029A8DB00230024C9
:10163000069307946A68EFF3108772B61368002B5D
:10164000FCD0BFF35F8F2B689C465C7B002CD8D00E
:101650009BD01B7B9C4298D8844BE6183601AB6824
:101660009846464432687368121A8B41002B92DD0B
:1016700032687368099800F099FB00239A469846EF
:10168000C3E7089B1B022343994651461800C047F5
:1016900006000F006A68EFF3108B72B61368002B18
:1016A000FCD0BFF35F8F002F26DB002F52DD2B69AC
:1016B000002B53D04B4574D100F012FB02000B1EDF
:1016C00075DB0100180092197B41984202D804D1C1
:1016D000914202D901225242D317002B6DDB002127
:1016E00004910131039102945146019141460091C8
:1016F0002800FFF775FE4BE02B69002BD5D04B453A
:101700001CD1069A079B10001900921BBB419942FD
:1017100002D804D1904202D901225242D317002BA1
:1017200012DB002104910131039102945146019191
:10173000414600912800FFF753FE29E04C4B484AF0
:101740009F21454800F098FE3E4B3F4A3F213F48CD
:1017500000F092FE002F01D1002EA8D12A68002CA3
:1017600047D0537B9C422ED10123002B41D1D37B08
:10177000002B44D1D473002C54D02B681B7B9C428B
:1017800050D8013CEB689C466444237801332370B5
:1017900000232B616A68BFF35F8F13608BF310889F
:1017A00040E7334B2E4AA2212B4800F065FE254B23
:1017B000254A3F21254800F05FFE224B224A3F2167
:1017C000224800F059FE002C0DD0137B9C420AD811
:1017D00063001B19033B11688C4663449B78002B04
:1017E000C3D00123C1E7234B234A6821234800F0DB
:1017F00043FE234B234AF621204800F03DFE002BF8
:101800000AD0117B8B4207D85900CB18033B1168D3
:101810008C4663445C70ADE7164B174A6821174845
:1018200000F02AFE0A4B104A40210B4800F024FE2B
:101830000BB03CBC90469946A246AB46F0BDC046B4
:10184000580E002028AC001020AB001044AC001053
:1018500010AD001078AB001014AE00108CAC00106E
:10186000C8AB0010A4AC001084AB0010FFFFFF0F4A
:10187000B0AC001068AD001038AB001084AD0010A3
:10188000ECAC001068AB001010B50A4B5B68002B85
:1018900004D00A210848FFF793FC10BD054C230033
:1018A000064A1021206800F0BFFB03212000FFF74B
:1018B000C7FCEEE73C020020700E002081120010F1
:1018C00010B5064B5B68002B01D0044810BD044BDB
:1018D000044A5C21044800F0CFFDC0463C020020D1
:1018E00044AD001098AB001014AE0010F0B5D64611
:1018F0004F464646C0B588B0804616001F00109B74
:10190000994612AB1B789A461F236B4400221A702B
:1019100032E0002809D042461268127B904204D877
:10192000421E4146C9688A5C42E03F4B3F4A402123
:101930003F4800F0A1FD0020002B6DD05346002B46
:101940006AD01199C84704000D0003000B4369D009
:1019500000293FDB00F0C4F900294FDB24184D417A
:10196000A94202D804D1A04202D901246442E51759
:10197000002D49DB26002F0043465A68EFF3108400
:1019800072B61368002BFCD0BFF35F8F1F236B442C
:101990000493002303930293119B01934B460093FE
:1019A00032003B004046FFF71BFD031EB1D1020091
:1019B00041464968BFF35F8F00250D6084F31088AE
:1019C000002B27D01F236B441B78002BB3D11202AE
:1019D0001043B1E732003B00361BAF41BB4202D897
:1019E00004D1B24202D901267642F717002FC3DA9A
:1019F000104B114A3F21114800F03EFD0D4B0E4A9D
:101A00003F210E4800F038FD0A4B0B4A3F210B489E
:101A100000F032FD0120404208B01CBC90469946BF
:101A2000A246F0BD0020F7E710AD001084AB001017
:101A300014AE001028AC001020AB001044AC001015
:101A4000F0B585B006000C9F1100194301D10122A9
:101A50000023BE600A9939613A607B600B99796115
:101A6000D81701004240140043401D00241A8D4144
:101A700000F036F900291CDB03000A000019694157
:101A80008A4202D804D1834202D901204042C117C0
:101A9000002914DB0123029301970C4B00930200F1
:101AA0000B003000FFF722FFF860C043C00F05B005
:101AB000F0BD074B074A3F21074800F0DDFC044B0F
:101AC000044A3F21044800F0D7FCC0460112001030
:101AD00028AC001020AB001044AC0010F0B587B06B
:101AE00006000F00FEF7BFFB00281ED1062464424B
:101AF000E517A4197D41BD4202D803D1B44201D9F2
:101B000000240025002D13DB0494059500F0E8F86F
:101B1000002913DB241A8D41002D17DC14D030006E
:101B2000390000F0E9F807B0F0BD234800F03EFDB1
:101B3000224B234A3F21234800F09EFC1F4B204AA2
:101B40003F21204800F098FC002CE8D0FFF7B8FEB9
:101B50000023029301931C4B0093049A059BFFF70B
:101B6000C5FE002818DADAE7002300E00023002B86
:101B7000D5D1164B1A68EFF3108172B61368002B9B
:101B8000FCD0BFF35F8F114B1B68BFF35F8F002248
:101B90001A6081F3108820BF0499059A0C4B5B6A88
:101BA0009A42E3D80A48806A884203D29A42DBD03C
:101BB0000123DCE70123DAE74CAE001028AC00106B
:101BC00020AB001044AC0010D1110010700E0020AA
:101BD0000040054070B504000D0000F081F80029B8
:101BE00010DB02000B00001969418B4202D804D1BE
:101BF000824202D901204042C117002908DBFFF7C9
:101C00006DFF70BD054B064A3F21064800F034FCCD
:101C1000024B034A3F21034800F02EFC28AC001081
:101C200020AB001044AC001010B5FA229200002343
:101C3000002103F0C3F9FFF7CDFF10BD70B5EFF33E
:101C400005833F2018401038EFF3108472B6194B0B
:101C50001B68002BFBD0BFF35F8F0123190081406D
:101C6000154A5163154A12781500C5402B4214D00D
:101C7000114B5D6A8300124E9B599D4206D383002F
:101C8000104D5B598A430D490A7007E00A4A031D4B
:101C90009B0099589950002300E00023BFF35F8F09
:101CA000044A0021116084F31088002B00D098476B
:101CB00070BDC046280100D0004005408A0E0020BB
:101CC000740E0020D40D002010B50100024A034814
:101CD000FFF730F810BDC046B8AE0010880E0020E7
:101CE000044B596A00E01900024B986A5B6A9942FA
:101CF000F9D1704700400540074B5B6A8B4204D224
:101D0000054B5B6AFAE7044B5B6A8B4203D1024BDB
:101D10009B6A8342F7D370470040054070B50400CA
:101D20000D00EFF3108672B61B4B1B68002BFBD027
:101D3000BFF35F8F002D1CD02000FFF7B9F8174BC1
:101D400098420BD019002000FFF7BAF801212000BB
:101D5000FFF7A6F80123A340114A1360A400114B1A
:101D6000E550BFF35F8F0C4B00221A6086F310889A
:101D700070BDA2000B4B0021D1500122A2400A49A4
:101D80000B7893430B7005492000FFF7C3F800213F
:101D90002000FFF785F8E4E7280100D03D1C001083
:101DA00038600540D40D00208A0E0020F0B5DE46D4
:101DB00000B584B00500140001921E000293FFF7E5
:101DC0008FFF03948E4202D84ED184424CD9EFF358
:101DD000108B72B6274B1B68002BFBD0BFF35F8FB5
:101DE000254A17780124AC40E3B23B431370234BE0
:101DF0005C632A1D92000199D150AA0020490298E3
:101E000050501B6A234212D11C4B1B6C234208D03A
:101E10000020BFF35F8F174B00221A608BF31088EE
:101E200023E0184B184AC121184800F025FBFFF7A2
:101E300057FF8E4214D802D1039B834210D80E4B19
:101E40001B78BB420ED00D4B1C625C631F222A40E4
:101E5000012393400E4A1360074B1F700120D8E7FF
:101E60000020D6E70120D4E7012004B004BC93464B
:101E7000F0BDC046280100D08A0E00200040054079
:101E8000740E0020DCAE00109CAE001000AF0010FD
:101E900080E200E010B5EFF3108472B60A4B1B68C5
:101EA000002BFBD0BFF35F8F01238340074A1362EF
:101EB00007490A789A430A70BFF35F8F024B0022EA
:101EC0001A6084F3108810BD280100D0004005403E
:101ED0008A0E002010B500291ED0037B99421BD822
:101EE0004B005B18033B0468A4466344002919D0E7
:101EF000002A1DD0914221D0002A25D0047BA24285
:101F000022D804685000801803382018817019788E
:101F100000291FD11A7010BD104B114A68211148B9
:101F200000F0AAFA104B114A6F310E4800F0A4FAE3
:101F30000F4B0E4A70210B4800F09EFA0D4B0B4AD6
:101F40007121084800F098FA044B054A68210548B9
:101F500000F092FA41701A70DDE7C04668AD0010DB
:101F600044AF001084AD0010D0AD001050AF001091
:101F7000DCAD0010E8AD001070B506000D001400D7
:101F8000002914D0002A14D080687368984700286C
:101F900006D0220029003000FFF79CFF280007E050
:101FA0002A0021003000FFF795FF200000E010001C
:101FB00070BD0800FCE7000010B500234373013337
:101FC0008373037BC3730123027B9A4214D9002BD2
:101FD0000CD0027B934209D85A00D218033A016808
:101FE0008C4662440133DBB25370EDE70B4B0C4A75
:101FF00068210C4800F040FA002A09D0924207D824
:10200000016853009A18033A8A180023537010BDD0
:10201000024B034A6821034800F02EFA68AD001015
:1020200044AF001084AD001010B5017342608360AE
:10203000FFF7C2FF10BD000070B50400002901D1F8
:10204000080070BD002934D0037B994231D84B0081
:102050005B18033B0268944663445A78002AEFD029
:102060002DD0037B9A422AD853009B18033B00686B
:10207000844663445D7800205870002925D0237B76
:10208000994222D84B005B18033B20688446634486
:10209000002058702000FFF76FFF06002900200085
:1020A000FFF7CAFF020031002000FFF765FF0100C3
:1020B000C6E7094B094A6821094800F0DDF9064BDB
:1020C000064A6821064800F0D7F9034B034A682105
:1020D000034800F0D1F9C04668AD001044AF0010CD
:1020E00084AD001070B505000C001600002928D042
:1020F0002DD0037B99422AD84B005B18033B026822
:10210000944663445A78002A27D19A78002A2AD123
:102110001978FFF791FF0300002E03D0EA7B002A15
:1021200027D1EC73002B37D1002C49D02B7B9C425C
:1021300046D82A6863001C19033C141900236370F5
:1021400070BD224B224A3821224800F095F9224BDB
:10215000224A6821224800F08FF9224B1C4A3A217A
:102160001C4800F089F9204B194A3B21194800F01E
:1021700083F9002A0AD0297B8A4207D851008A189D
:10218000033A29688C4662445470CAE7124B134ADA
:102190006821134800F070F9002B0BD02A7B934282
:1021A00008D843001B18033B2A6894466344002266
:1021B0009A70B9E7084B094A6821094800F05CF9B0
:1021C000054B064A6821064800F056F9B0AF0010EA
:1021D00064AF0010B8AF001068AD001044AF00103D
:1021E00084AD0010F0AF001018B0001070B50400FE
:1021F0000A00457B2900FFF775FF6073280070BD5A
:1022000010B50400002966D0437B8B420ED0002914
:1022100011D0037B99420ED84B005B18033B026838
:10222000D0188378002B0CD1002055E00121FFF756
:10223000DDFF012050E0294B294A6821294800F0A0
:102240001BF9002B1FD0227B93421CD85A00D318B5
:10225000033B2268D21813788B421AD0002B1BD074
:10226000227B934218D85A00D318033B2268D21815
:1022700053788B4216D0002BF0D11B4B1B4A6721A1
:102280001B4800F0F9F8154B154A6821154800F075
:10229000F3F84378137007E0104B114A6821114896
:1022A00000F0EAF8437853700023837043700122F2
:1022B0002000FFF717FF0200617B814205D020005C
:1022C000FFF75AFE6073012006E00A4B074A6D21B2
:1022D000074800F0D1F8002010BDC04668AD0010DE
:1022E00044AF001084AD001044AA001078AF001075
:1022F000B8AF001090AF001010B50400FEF74EFD0F
:1023000001002000FEF75CFFFF232371BFF35F8F06
:1023100010BD10B50400FEF741FD01002000FEF7DE
:102320004FFFFF23237100236371BFF35F8F10BD45
:1023300070B505000C00062000F04EFAC000210028
:1023400001F0E0FBC60908D00E4B9E4217D87F2350
:10235000184001303400460800E001246C62AE628F
:102360002C3580239B011D4300232B60062000F0A9
:1023700033FA8000A101891901F0C4FB70BD002669
:10238000014CEBE7FEFF0000FFFF0000002909D031
:102390000A22064B9C466044434258414000044B8D
:1023A000C252704780225200F3E7C0460080FCBF53
:1023B000900E002070B505000C00062000F00CFA0D
:1023C000002829D0164B9D4227D08022D203154BDE
:1023D0001A60154B1A60154B9B6811009943FAD18E
:1023E00000212800FFF7D2FF21002800FFF7A0FFFF
:1023F0002C002C34E96A60224A406E211140802270
:102400005201224311600A4B2B6380239B0123431B
:1024100010221A600323AB6470BD80221204D6E739
:102420000080034000E0004000F0004000C0004099
:102430000103000000BEFDE703000A4A1268002AFB
:1024400008D0084A1068C318074A9A4206D3054ABA
:1024500013607047034A05491160F2E701204042CA
:10246000F7E7C046540E002000000420981000201A
:1024700010B5FFF7DFFF000010B582B00C001900A7
:10248000002A0CD0084B002A0BD0019200932300A5
:102490000200064803F022F80120FFF7CBFF044BAF
:1024A000F1E7034AF1E7C046D4B00010E4B00010F1
:1024B00014A8001070B52B4B2B4A1A602B4B2C4ADA
:1024C0001A602C4B9A682A4B9343FAD12A4C01E0AC
:1024D00008CC9847294B9C42FAD300F0FDF8234BD7
:1024E000274A1A60234B9B68DB43DB01FAD1254B5B
:1024F00040229A675A671A67DA66234C09E0234B31
:10250000234A83212348FFF7B7FF2000FFF7F4FE9B
:102510000834214B9C4209D22368002BF5D0012BB3
:10252000EDD12000FFF7F5FE0834F2E71B4CA1685F
:102530001B4DC022280002F08FFEA560FDF793FE20
:10254000002800D000BEFEF719FCFEF72BFEFFF7B7
:102550009BF9144C01E008CC9847134B9C42FAD3EA
:1025600070BDC04600E00040BFCDFBFE00F0004063
:10257000FE7F3C0000C00040640C0020740C002072
:10258000FFFFFF0100F00140540C002034B10010A7
:1025900014B1001054B10010640C002000ED00E0F4
:1025A00000000020740C0020780C00200FB400B54F
:1025B00083B0084802F060FF049B002B07D005A9F8
:1025C0000191180002F068FF034802F055FF012056
:1025D000FFF730FF24B1001030A80010F0B5DE4640
:1025E000574680B583B007000E0092460A9A934280
:1025F0004CD3190E01911B02180000930A9A002374
:1026000001F0C2FA05007B00DB199C002D4B9C46B3
:1026100064446368834200D260603B1FDBB29B4628
:10262000012B39D9C0239B012343802212011A6058
:10263000BB00254A9958002905D0506901F062FA7B
:1026400001300138FDD153465B0122685340E0223E
:10265000134080225201224313605B46012B26D98E
:1026600080239B012343802212011A6065602A00A7
:1026700000230098019901F087FABF00124BF8502F
:10268000012003B00CBC92469B46F0BD0F4B104A94
:102690002D211048FFF7F0FE012EC3D1C0239B016E
:1026A000234303221A60A368DB07FCD5CBE721682C
:1026B000714003230B401360A3680122B2401A4209
:1026C000FAD0CDE700800040E40D0020A8B1001052
:1026D00098B10010BCB1001030B583B00C2000F0F0
:1026E00021F9FEF741FB00280DD00023092B05D866
:1026F00099002D4A2D4888500133F7E72A4B2C4A80
:102700005A6203B030BD2B4B00229A6700F012F9D9
:10271000294B01221A60274B5B6C012BFBD1274B05
:1027200003221A60234B9B6B012BFBD101330093D7
:102730000433234A0121234800F054F80523009371
:10274000214A0121214800F04DF8214B009300223D
:1027500002210420FFF742FF1E4D00952B000022AE
:1027600001210520FFF73AFF104C009423000022BE
:1027700000210720FFF732FF0094230000220021F0
:102780000820FFF72BFF0A4B0093230000220021B3
:102790000920FFF723FF00952B00002200210620CF
:1027A000FFF71CFFADE7C046E40D0020006CDC0223
:1027B0001BB70000008000403CB0004030B000403B
:1027C000002F685900800240008C864700C00240FC
:1027D000001BB700405973078000014BC058704779
:1027E000E40D0020F0B583B00500019114001F0036
:1027F0000C2001F087F906003D4BE2183D4B9A4250
:1028000042D84201121A93019B1ADB001B1899014E
:10281000200001F077F90200103A98235B009A42F9
:1028200038D87B1E062B3BD8089B013B062B37D89C
:10283000089B9F423AD32309B3423DD33F04089BF0
:102840001E033E432B68002B3CDB2B4B9D424BD0A1
:1028500080214901294B1960294B1960294A926846
:102860000B009343FAD1019B2B60A8602A1DC02363
:102870009B01134321221A602A68002AFCDAEE60C9
:1028800008221A6003B0F0BD1F4B204A11212048D6
:10289000FFF7F2FD1F4B1D4A19211D48FFF7ECFD04
:1028A0001D4B1A4A1C211A48FFF7E6FD1B4B174A1D
:1028B00022211748FFF7E0FD194B144A252114483F
:1028C000FFF7DAFD2A683F231340019A9342BCD1F7
:1028D000AB681B051B0D8342B7D1EB68EE22D20219
:1028E0001340B342B1D1CDE780218901B2E7C046A0
:1028F00080E84BD380F8A93200C0024000E00040DD
:1029000000F0004000C000400CB2001000B2001007
:102910006CB20010ACB20010C8B2001014B30010BA
:102920002CB3001080239B000343014AD3627047FD
:1029300000800540064BAA2212011A602F22DA609D
:10294000044B054A1A60024B5B68002BFBDA7047A8
:10295000004002400060024000B0FA00704710B52D
:10296000002802D00B684968984710BD10B50400D4
:10297000002321680A78303AD2B2092A08D8980090
:10298000C31858004B1C23600B781B18303BF0E732
:10299000180010BDF0B5D6464F464646C0B582B0C9
:1029A00005000091904601930A9B99460B9C0C9E52
:1029B0000D9B9B070CD04E460C9B9946002C19D0C2
:1029C000013C571C305D019B0099A8473A00F5E790
:1029D0002700A246B74207D2541C019B0099202031
:1029E000A84701372200F5E754460C964E460C9B4B
:1029F0009946E3E74E460D9B9B0706D4100002B0B4
:102A00001CBC90469946A246F0BD4746D31BB34234
:102A1000F4D2541C019B00992020A8472200F5E71E
:102A2000F0B5CE4600B586B0049205930C9D0D9C82
:102A30000EAE33789946109F119B129EB2071BD49D
:102A4000002B08D0F20706D54A46002A02D10C32E4
:102A5000324200D0013BBC4208D21F2C06D83022A3
:102A60002A550134F7E730222A550134F20703D5FD
:102A70009C4201D21F2CF6D9F20615D5720505D459
:102A8000002C03D0BC4223D09C4221D00F9A102AA4
:102A90002AD00F9A102A2FD00F9A022A34D01F2C36
:102AA00002D830272F5501341F2C05D84A46002A5A
:102AB00030D02D272F5501340396029301940095B1
:102AC000059B049AFFF766FF06B004BC9146F0BD73
:102AD000671E002F06D00F9A102A01D03C00D5E7C0
:102AE000023CD3E73C00D1E7B206D2D41F2CD0D8A9
:102AF00078272F550134D2E7B206CDD51F2CCBD87D
:102B000058272F550134CAE71F2CC8D862272F55E4
:102B10000134C4E7720703D52B272F550134CBE7C7
:102B20003207C9D520272F550134C5E7F0B5CE4669
:102B3000474680B595B0089009910A920B931CAB5B
:102B400010CB1B7898461E9D219B9946002C03D1E3
:102B500010234A469A4391468027FF004B461F4068
:102B600018D0002C22D0002714E04A4692061BD52C
:102B70004121C918C9B20A39C9B27E1C0CABD9555A
:102B80002900200000F0BEFFAC4210D31F2E0ED84B
:102B9000370004002900200000F0B4FFCBB2092B5D
:102BA000E3D83033D9B2E8E76121E2E726004B46AB
:102BB0000693209B05931F9B049303954346029322
:102BC00001960CAB00930B9B0A9A09990898FFF7A2
:102BD00027FF15B00CBC90469946F0BDF0B5DE4617
:102BE000574680B597B00A900B910C920D931E9AA0
:102BF00008921F9C20AB1B789B46229B0993239D28
:102C0000269B9A462243131E03D1103352469A4301
:102C100092468026F60053461E4006D0089A1300BE
:102C2000234333D0002637001AE0370018E052461D
:102C3000920621D54122D218D2B20A3AD2B27E1CD3
:102C40000EABDA55099A2B000898210000F09CFF82
:102C5000A5421DD812D01F2E16D8370008900C00A0
:102C6000099A2B000898210000F08EFFD3B2092B9F
:102C7000DDD83033DAB2E2E76122DCE7099B089A5B
:102C80009342E8D9370004E0370002E0002700E073
:102C9000370053460693259B0593249B0493099B79
:102CA00003935B46029301970EAB00930D9B0C9A26
:102CB0000B990A98FFF7B4FE17B00CBC92469B46DE
:102CC000F0BD0000F0B5D6464F464646C0B594B0BC
:102CD0000A9006910B9207931C9C08941D9D0995E0
:102CE00022002B002000290001F0F1F9002800D07B
:102CF000E8E001225242D64B2000290001F0E2F91F
:102D0000002800D0DEE001225242D24B20002900F0
:102D100001F0C2F9002800D0D4E000220023089D71
:102D20002800099C210001F0B7F9002800D0DFE05D
:102D3000089E099F8023DB00209A1A409046131EAC
:102D400001D106331E930C960D973A00324300D101
:102D5000D5E0380D4005400DBF4A944660443A0323
:102D6000120BBE4B13431D0001F0C4F9BC4ABD4B0E
:102D700001F047F9BC4ABD4B01F01CF90C900D91D4
:102D80000022BB4B3000290001F00BF9B94ABA4BC5
:102D900001F037F902000B000C980D9901F00AF9C7
:102DA00001F0C0F9824601F0A5F9B44AB44B0C9089
:102DB0000D9101F026F90022B24B01F0FBF801F071
:102DC000B1F90500B04AB14B0C980D9901F019F911
:102DD0000C900D91280001F08DF9AD4AAD4B01F03A
:102DE00010F902000B000C980D9901F0DAF80200BE
:102DF0000B000E900F9101F004F910901191A64B69
:102E00009C4665442B050D9300230C930E9C0F9D4F
:102E100022002B002000290001F0CCF80E900F9129
:102E200022002B0000208021C90501F0BAF8129081
:102E300013910022994B109C119D2000290001F054
:102E4000C2F80022964B01F0B5F802000B002000FA
:102E5000290001F0B8F80022924B01F0ABF8020013
:102E60000B002000290001F0AEF802000B001298C0
:102E7000139901F09FF802000B000E980F9901F0D2
:102E8000A2F80022754B01F095F80C9A0D9B01F009
:102E9000B8F802000B000C920D9332003B000400C6
:102EA0000D0001F00FF900282BD001235B429C4656
:102EB000E24400227A4B2000290001F084F80C90B3
:102EC0000D911EE0209B04931F9B03931E9B029376
:102ED000089A099B00920193079B0B9A06990A98FE
:102EE00000F0F4F814B01CBC90469946A246F0BD20
:102EF0002E0080231B069C46644427001AE700230B
:102F00009A4653466333C62B21D80425209B1B05C4
:102F100029D50C9A0D9B1900114310D0624A634BBE
:102F20003000390001F0C6F8002800D182E000220C
:102F30005F4B3000390001F0AFF800287AD01E9BBB
:102F4000534506DD52469C1A631E1E9303E0052579
:102F5000DCE700231E938023DB00209A1A43209293
:102F6000002500239A461F9B9D426DD25B1B99460C
:102F70000223209A1A40904603D0002D01D000234E
:102F800099465346002B07D00C9A0D9B3000390010
:102F900001F019F806000F00002200230898099993
:102FA00001F07AF8002800D086E0424B209A1340C6
:102FB00004934B4603931E9B029300960197079B35
:102FC0000B9A06990A9800F081F8002D00D189E744
:102FD000209B9B0675D54526471C079B020006993A
:102FE00030000A9EB0475046C2178318534005224E
:102FF0000592013D0495002203920A320292C40F09
:1030000001940093079B3A0006993000FFF78EFD6C
:103010004346002B00D165E702000A9E0B9C1F9DD2
:10302000131BAB424FD2571C079B06992020B04779
:103030003A00F5E71E9B002B95D04346002B92D01B
:103040001E9B013B1E938EE70023994690E7C046E6
:10305000FFFFEF7FFFFFEFFF01FCFFFF0000F03FEE
:10306000FB799F501344D33FB3C8608B288AC63F77
:103070000000F83F61436F63A787D23F71A37909CE
:103080004F930A400000E03F1655B5BBB16B0240BC
:10309000EF39FAFE422EE63FFF03000000002C400D
:1030A00000002440000018402D431CEBE2361A3F7C
:1030B00080842E41FFF7FFFF802109067B181F0047
:1030C00073E7652688E710000CE7C046F0B5D646E2
:1030D000474680B597B00690079108920993209FC4
:1030E0001E9A1F9B1000190000F0F1FF002839D133
:1030F00001225242BC4B1E981F9900F0CDFF0028C0
:103100003FD101225242B94B1E981F9900F0DAFFBD
:10311000002845D10022B64B1E981F9900F0D2FF1F
:10312000002856D10022B34B1E981F9900F0B4FF1F
:1031300000284ED1002200231E981F9900F0ACFFFA
:10314000002856D100239A46229B5B055CD50026B9
:103150001F2E5BD8092F59D90EAB30229A55013F4B
:103160000136F5E7229B0393219B029303230193EE
:10317000A14B0093099B089A07990698FFF70AFC50
:1031800003E1229B0393219B0293042301939B4B16
:103190000093099B089A07990698FFF7FBFBF4E058
:1031A0000423229A134010D0954A002B0FD00423F9
:1031B000229903912199029101930092099B089A07
:1031C00007990698FFF7E6FBDFE08E4AEDE7032359
:1031D000EEE7229B0493219B039302971E9B1F9C67
:1031E00000930194099B089A07990698FFF76AFDD6
:1031F000CBE01E9A1F9B0020002100F0D2FE1E9003
:103200001F9101239A469FE70627A0E71E981F9962
:1032100000F088FF040000F06DFF02000B001E9814
:103220001F9900F0BEFEFA00774B9B181A685B6886
:103230000C920D9300F0E5FE0A900B9100F096FFC2
:10324000050000F053FF02000B000A980B9900F0F4
:10325000A8FE0A900B9100226C4B00F033FF00286F
:103260002CD00135280000F041FF02000B000C9823
:103270000D9900F017FF002801D001340025002F20
:103280002AD1200000F036FF02000B001E981F9983
:1032900000F087FE00225D4B0A900B9100F0FCFECF
:1032A000002844D10022594B0A980B9900F00AFFDC
:1032B00000283CD1E3073AD5013438E00022534BD3
:1032C0000A980B9900F0E8FE0028D8D1002D01D013
:1032D000EB07D4D50135D2E70A941F2E11D8013F50
:1032E0000A21280000F00EFC741C30310EAB9955F9
:1032F0000A21280000F006FC092D0ED90500260041
:10330000EBE70A9C1F2E0CD87B1E002F09D00EAABB
:10331000302191551F000136F4E7A0460A9C46462D
:10332000F0E71F2E03D80EAB2E229A5501361F2E22
:1033300010D80A21200000F0BDFB751C30310EAB07
:1033400099550A21200000F0B5FB041E01D02E0083
:10335000EDE72E000323229A1340012B1AD01F2ED3
:1033600006D85346002B2FD00EAB2D229A5501368E
:10337000229B0393219B029301960EAB0093099B22
:10338000089A07990698FFF705FB17B00CBC904602
:103390009A46F0BD219B002B0AD05346002B02D148
:1033A0000C3313420ED0219B013B2193190000E006
:1033B00021998E42D3D21F2ED1D80EAB30229A55EE
:1033C0000136F6E72199F4E7229B5B0704D50EABA3
:1033D0002B229A550136CBE7229B1B07C8D50EAB93
:1033E00020229A550136C3E7FFFFEFFFFFFFEF7F73
:1033F00065CDCD4165CDCDC134B5001038B50010D7
:103400002CB5001028B5001040B500100000E03FBA
:10341000F0B5DE4657464E464546E0B593B0834686
:103420000B910A921193002900D1E6E200275C4635
:10343000119B1878002800D1E2E2252809D07D1CD4
:103440000A9B3A000B99A047119B013311932F005F
:10345000EEE70133119300261DE00B00303BDBB299
:10346000092B37D92A293AD000239B46119B1A7879
:103470002E2A44D000239846119A1378683BD9B27B
:10348000122900D980E08B00CB49CB589F460123FD
:103490001E4301321192119A11780B00203BD8B2D1
:1034A0001028DAD88300C548C3589F4602231E431C
:1034B00001321192EFE704231E4301321192EAE731
:1034C00008231E4301321192E5E710231E43013207
:1034D0001192E0E711A8FFF749FA8346C6E71C9B63
:1034E0001A1D1C921B68002B04DB9B46119B0133A9
:1034F0001193BBE7022216435B429B46F6E780220C
:10350000D20016435A1C11925A781300303BDBB29A
:10351000092B04D92A2A07D000239846ACE711A822
:10352000FFF724FA8046A7E71C9B1A1D1C921B6814
:10353000002B04DB9846119B013311939CE7002379
:10354000F8E780235B003343511C119152786C2AB9
:1035500001D01E0018E0C0239B001E4301311191D1
:1035600012E080233343511C11915278682A01D014
:103570001E0009E0C0231E430131119104E08023A5
:103580005B001E4301321192119B18780300253B0A
:10359000DAB2532A00D926E29300894AD3589F46CB
:1035A00080239B001E4301321192EDE780235B00D4
:1035B0001E4301321192E7E7782809D0582838D005
:1035C0006F2838D0622838D010239E430A2500E0A7
:1035D0001025582833D0692803D0642801D00C2244
:1035E0009643730501D50122964369282AD06428A1
:1035F00028D0B30500D59FE0F30500D5B8E07306E9
:1036000000D4CAE01C9A111D1C911168FF220A40C7
:1036100005965B460493434603930295002301936A
:1036200000920A9B3A000B992000FFF77FFA0700EF
:1036300027E01025CDE70825CBE70225C9E72022A2
:103640001643C8E7B30520D4F30550D4730666D5F6
:103650001C9A111D1C911168FF220A40D317D11822
:10366000594005965B460493434603930295D20F57
:10367000019200910A9B3A000B992000FFF756FA3D
:103680000700119B01331193D2E61C9BDA1D072121
:103690008A43110008311C91116853689C46DB175E
:1036A0000C930D930C9A0D9B100048400E906246AF
:1036B00053400F930E980F990C9A0D9B801A9941C5
:1036C0000E900F9108965B46079343460693049528
:1036D000002305936346DA0F0292009001910A9B42
:1036E0003A000B992000FFF779FA0700C9E71C9A06
:1036F000111D1C911268D317D118594005965B46CD
:103700000493434603930295D20F019200910A9BC2
:103710003A000B992000FFF709FA0700B1E73306DA
:1037200005D51C9A111D1C910023D25E96E71C9AA8
:10373000111D1C91126891E71C9BDA1D07218A4319
:10374000110008311C9108965B4607934346069387
:103750000495002305930293536812680092019325
:103760000A9B3A000B992000FFF738FA070088E718
:103770001C9A111D1C9105965B46049343460393C6
:10378000029500230193136800930A9B3A000B995A
:103790002000FFF7CBF9070073E7330606D51C9A24
:1037A000111D1C9112681204120C31E71C9A111D94
:1037B0001C9112682CE7C04648B3001094B3001067
:1037C000D8B3001046281AD01C9B07330722934316
:1037D0001A0008321C9204965A46039242460292FC
:1037E0001A685B68009201930A9B3A000B992000CB
:1037F000FFF76CFC0700119B0133119318E620239F
:103800001E43E1E7672801D0472802D180231B012E
:103810001E43452801D0472801D120231E431C9B6D
:103820000733072293431A0008321C9204965A4623
:103830000392424602921A685B68009201930A9BC7
:103840003A000B992000FFF73DFA0700119B013366
:103850001193EDE5022333409A461ED001261C9BAE
:103860001A1D1C927D1C18780A9B3A000B99A047E0
:103870005346002B15D1119B013311932F00D7E52F
:10388000551C0A9B0B992020A04733002A005E1C80
:103890009F42F5D8BB461700E1E701233A005F4697
:1038A000F5E72A00A0465C4606E0571C0A9B0B99E8
:1038B0002020C0472E003A00751CB442F5D81500F0
:1038C0004446D8E71C9B1A1D1C921B689A46434627
:1038D000002B00D1013B55462A78002A05D05A1EFC
:1038E000002B02D001351300F6E75346ED1A802372
:1038F000DB003340994602D0454500D945460223B6
:103900003340109308D03A00564629004D46230014
:103910004446984689461FE03A0023005C469B4691
:1039200006E0571C0A9B0B992020D84735003A0027
:103930006E1CAC42F5D835005B46A34656462900BE
:103940004D4644469846894606E01C000136571C01
:103950000A9B0B99C0473A003078002804D0002D0C
:10396000F4D0631E002CF0D117004D464446109B46
:10397000002B03D1119B0133119359E55C4606E0FE
:10398000571C0A9B0B992020C04735003A006E1C3B
:10399000AC42F5D817004446ECE7212333431C9A88
:1039A000111D1C911268009205930823049343464D
:1039B000039310230293002301930A9B3A000B996F
:1039C0002000FFF7B3F80700119B013311932FE597
:1039D0007D1C0A9B3A000B992520A047119B0133BF
:1039E00011932F0024E57D1C0A9B3A000B99A047F8
:1039F000119B013311932F001AE50B4B9B4615E5E4
:103A0000A3460A9B9F420CD35A1E0A9B0B99002087
:103A1000D847380013B03CBC90469946A246AB4606
:103A2000F0BD3A00F1E7C0465D29001000B585B051
:103A3000029003910121009313004A4202A9024817
:103A4000FFF7E6FC05B000BD5F2900100148042126
:103A5000014B1847700200207D3A001010B501009C
:103A600018231B8814221088984710BD10B5010038
:103A700018231B8816221088984710BDF0B5C6463B
:103A800000B507000E0000250123984600E001352F
:103A9000B5420AD2AC003C192068FFF7DFFF206076
:103AA0000028F4D100239846F1E7404604BC904634
:103AB000F0BD0000124A936F9B0815D29066D16644
:103AC000002905D0FFE7FFE7FFE7516F106F704750
:103AD00004B580210906C2175140002800D0C84310
:103AE00006F002FE002104BDF0B5146E556E576F4E
:103AF000166FFFF7E3FF1466556657671667F0BD4C
:103B0000000000D0114A936F9B0813D210665166D3
:103B1000002905D0FFE7FFE7FFE7516F106F7047FF
:103B200004B5002801D00020C04306F0DDFD0021CF
:103B300004BDC046F0B5146E556E576F166FFFF793
:103B4000E5FF1466556657671667F0BD000000D0A4
:103B500094464E4A926F9208624601D230E0C046C7
:103B6000F0B54A4EB56F6D08FCD3346E756E776F45
:103B7000366F00F025F89446444A14665566576738
:103B800016676246F0BDC0469446404A926F92085E
:103B9000624601D258E0C046F0B53C4EB56F6D08A4
:103BA000FCD3346E756E776F366F00F04DF8944627
:103BB000364A14665566576716676246F0BDC046BA
:103BC000002B24DB11D000293EDA00B5C943404266
:103BD00000D1013100F038F8C943404200D1013131
:103BE000DB43524200D1013300BD002AEBD1002853
:103BF00001D1002905D00020C90FC90701D1C04358
:103C0000410800B506F068FD0022002300BD00B5A4
:103C100000290ADBDB43524200D1013300F014F8E3
:103C2000C943404200D1013100BDC943404200D1E7
:103C30000131DB43524200D1013300F005F8DB4390
:103C4000524200D1013300BD002923D1002B18D1ED
:103C5000002A0CD0BC460D4F38667A66002100233E
:103C6000FFE7FFE7FFE77A6F386F67467047002886
:103C700001D00748010000B506F02EFD0022002308
:103C800000BD02000B00002000217047000000D0A2
:103C9000FFFFFFFF002B00D0BFE0130C28D1002A4C
:103CA000E7D080B4114F39667A66FFE7FFE730B49A
:103CB000040C7B6F396F1B0423433B667A66FFE776
:103CC000FFE7FFE7C04684B27B6F3D6F1B042343D1
:103CD0003B667A66FFE7FFE7C04600232C042D0C05
:103CE0007A6F386F00196941B0BC7047000000D08E
:103CF000F0B594460025140E01D112020835140FB8
:103D000001D112010435940F01D192000235D40F74
:103D100001D152000135D40B0134254F7C66254C6E
:103D20003C660E0C93B2FFE7FFE7FFE73C6F66438C
:103D3000360C7703BE467343DF0B5B04C01AB941F0
:103D4000130C7343DB18C91ACE086643360CB6440D
:103D500093B273431F0F1B01C01AB941130C734375
:103D60001F0B1B05C01AB941860D8F023E436643E7
:103D7000360C092D24DB520A7243801A7703460A57
:103D80006643360C16235B1BDE40DF40BF196446DA
:103D90006643821B7046043506330100D940A840B3
:103DA000C01900D30131A24206D20023F0BD0000A9
:103DB000000000D0FFFFFFFF121B0130F3D3F1E73B
:103DC00009277F1BFE406446A2B27243801A00D2CC
:103DD0000139220C7243130C1204821A99410B0010
:103DE0007046043513370100F940A840801900D30C
:103DF0000131002B02D1A2420AD2F0BD013000D322
:103E00000131121BFAD2013BF8D1A24200D2F0BD1F
:103E1000013000D30131121BF7E7F0B51C0C00D0C4
:103E200080E00CB400251C0A04D11B02160E33439B
:103E3000120208351C0B04D11B01160F334312016B
:103E400004359C0B04D19B00960F3343920002353E
:103E5000DC0B02D192185B4101351C0097186441BC
:103E60000134464F7C66464C3C660E0CFFE7FFE78C
:103E7000FFE7C0463C6F6643360C7703BE4697B2F9
:103E80007743C01B00D20139C01B00D201399FB259
:103E90007743C91BC91B170C77437E04FF0B801B9C
:103EA000B941CE086643360C0C2D33DBB644120BF9
:103EB0001F053A431B0B97B27743C01B00D2013951
:103EC0009FB27743C91B170C77433E043F0C801BFE
:103ED000B941860D8F023E43664329277F1BFE4072
:103EE0000C3D7746AF40BF1930BCA2B2ABB27243B3
:103EF0007343801A9941220C7243130C1204801AE6
:103F0000994102000B000137001BA941F9D2781E2C
:103F10000021F0BD0C277F1BFE4077467F0BAF4092
:103F2000FF19E0E700245D1C07D0144F7D66396659
:103F3000FFE7FFE7FFE7FFE73C6F95B29EB26543FF
:103F40006643401BB141150C1E0C654366433604A5
:103F50002F0C3E432D04401BB141994204D2020074
:103F60000B0020000021F0BD01D19042F7D3801A50
:103F7000994101349942F2D3F6E70000000000D0E5
:103F8000FFFFFFFF44464D4656465F46F0B470477C
:103F9000F0BCA046A946B246BB46704748404140E7
:103FA000484018B41B4B5B68FC46019308BD04DF16
:103FB0008345001018B4174B1B68FC46019308BDDD
:103FC00000DF8D4500109446134A926F920809D283
:103FD000624618B40F4BDB68FC46019308BD0CDF4A
:103FE000454800100C4AF0B5146E556E576F166FA9
:103FF0006246FFF7EEFF084A146655665767166774
:10400000F0BD18B4034B9B68FC46019308BD08DF64
:10401000E9460010940E0020000000D0FFB550408B
:104020004240504059404B40594000E0FFB5154FC9
:104030004C00640D03D0BC4204D10C0314D8002002
:10404000090D09055C00640D03D0BC4204D11C03BA
:104050000AD800221B0D1B0501264B4009D44B40FA
:1040600003D58B4200D18242FFBD9942FCD19042E0
:10407000FFBD0B43DB1803431343F5D0C943491875
:10408000FFBD0000FF07000000B5FFF7CFFF01D024
:10409000002000BD012000BD00B5FFF7C7FF804133
:1040A00000BDC04600B5FFF7C1FF01D9002000BD2B
:1040B000012000BD00B5FFF7B1FF01D9002000BD10
:1040C000012000BD00B5FFF7A9FF804100BD012020
:1040D00040054A00121804D85A00121801D80020CE
:1040E0007047012070470020704700000021002821
:1040F00005D17047C1174840401AFAD0C90713B517
:10410000064B1B6898470CBC441CA2401005120BC0
:104110000349091B09051943114310BD6C0E00200A
:104120001F04000010B54C00620D8023D218DB0084
:10413000D21A5B057E2A10DD9E3A13DACC170903EA
:10414000490819435242D140640001341532202AF3
:1041500005DAD0400843604310BD002010BD08467A
:10416000604310BDC80FC018013810BD18B4044B0F
:104170005B6AFC46019308BD24DF794A0010000009
:10418000940E002018B4044B1B6EFC46019308BD2E
:1041900060DF874B00100000940E002018B4044B21
:1041A000DB6FFC46019308BD7CDF114B0010000063
:1041B000940E0020024A034B00B500F0BDF900BD8B
:1041C000182D4454FB2119408A0002D3920D092A6C
:1041D00008DA18B4064B1B6CFC46019308BD40DF9F
:1041E000BB4C001000B5FFF7E5FF04BC9646F0E7B6
:1041F000940E002070B513231C78012C0CD0012CD8
:1042000013DC022C02DC1F4A1F4B9A641F48FFF785
:1042100025FC1F4B186070BD00231F2BEFD89900A1
:104220001848194A88500133F7E71A48FFF71EFC6F
:1042300005001948FFF71AFC023803789B007F2B12
:1042400019DD80222900104801F006F8022CD8D18F
:10425000124B1A88B5231B029A4209D1104B1A88B7
:10426000104B9A4204D1104B1A88104B9A42C8D076
:104270000020FEF79BF90E4B0E4A32210E48FEF746
:10428000FBF8C04649450010940E00204C33000056
:104290006C0E0020534400005346000054380000C8
:1042A000D8380000494600009C38000059460000FC
:1042B00090B5001038B60010F0B50010F0B5DE462D
:1042C00057464E464546E0B585B004000D000092C5
:1042D00001930E998A46002944DD191101204042BC
:1042E000FFF710FC039000239B4629E00C2399461E
:1042F000AB11039A53431D224946521A134101330D
:104300005B109846202252428B1821D422009A40FA
:10431000170023004A4693401E004346D917009ACF
:10432000019B404600F04AFE34003D00241A8D41B6
:104330005B464A46934043449B4653469B1A9A46E3
:104340005346002B11DD53460C2BCFDCD146CFE773
:1043500020235B1A2200DA4013002A008A4017004B
:104360001F43D6E700230393BDE7009A019BAB42AE
:1043700009DC01D1A24206D8009A019BA41A9D41F2
:1043800001239C46E344009A019BAB4209DC01D126
:10439000A24206D8009A019BA41A9D4101239C4683
:1043A000E344002D0FDB002D16DB0F9B002B01D00B
:1043B0005A461A602000290005B03CBC9046994638
:1043C000A246AB46F0BD009A019BA4185D410123B3
:1043D0005B429C46E344E6E7009A019BA4185D41DA
:1043E00001235B429C46E344DFE70000F0B5CE4684
:1043F000474680B589B01E00109C04940592CB0FEF
:104400009C460A0D5205520D0F033F0B80235B03A0
:1044100002901F430397F40FA046350D6D056D0DF7
:104420003403240B059E1C432700049C002C01D060
:10443000002323603D4B9A426BD0002D6CD0002AA4
:1044400000D170E09D4269D06B1E934266DC3CD087
:104450006346002B06D0029B039C00215842A141D9
:104460000290039107AB0193521B009232003B0074
:1044700002980399FFF722FF02000B0012184B412C
:10448000140002921A00BB420ADC01D1B44207D8E0
:10449000029BB34209D1BA4207D1079BDB0704D57F
:1044A000801BB941079B013307934346002B02D081
:1044B000079B5B420793049A002A01D0079B136075
:1044C0001B4A521BFFF75EFE28E0039ABA420CDD3E
:1044D0006246002A10D1B6197F4102980399801BC9
:1044E000B941013207921D00DFE7029C039DBD42E6
:1044F00014D1B442ECD811E0B6197F413000390034
:10450000029C039D001BA9410122524207921D00FB
:10451000CBE70020074901E00020064909B00CBCA8
:1045200090469946F0BD00200021F7E7FF07000004
:10453000330400000000F07F10B582B00024009426
:10454000FFF754FF02B010BD07B56046002800D148
:1045500000BE01880A0A0230DF2AFAD1C9B28208F5
:1045600004D3028840880004104300E00068024A37
:104570005050039007BD0000940E00200FB403BC00
:104580000CBCF0B50124E407634000E0F0B50C0D6D
:10459000CF0F661E3605891B640503D3C94340420D
:1045A00000D30131640D03D0661CF60A07D0E41B6A
:1045B00000207F00791C89078912803C24031D0D8F
:1045C000DF0F6E1E36059B1B6D0503D3DB43524286
:1045D00000D301336D0D03D06E1CF60A07D0ED1B1E
:1045E00000227F007B1C9B079B12803D2D032F1B0D
:1045F000661B58D4A446202E46DA20371400BC404F
:104600001D00BD40F24033412A4380185941CB0F71
:1046100005D0C943C0430022644250415141624623
:104620004D0D28D10D0D07D100281FD02419404170
:104630004941013A0D0DF9D0640006D3013000D391
:104640000131002C01D140084000013A0BD4941CE8
:10465000E40A04D112051144DB071944F0BDD9075F
:10466000204B194300E0D9070020F0BD0029DDD11F
:10467000002CDBD1F0BD0132C6074008CD0728432E
:104680004908002EE1D0D9E73C2E29DA203E4037F8
:104690001400BC4000D00124F24014431A00BB4077
:1046A0001C43D317ACE7AC46202F08DA20360400B1
:1046B000B4400D00B540F84039412843A5E73C2FF0
:1046C0000CDA203F40360400B44000D00124F8400A
:1046D00004430800B1400C43C117EAE71000190079
:1046E000002494E70000F07FF0B50C0D661E36053F
:1046F000891BE60A6405640D02D0651CED0A04D02E
:10470000002001210905803C2403A4461C0D671EDE
:104710003F05DB1BE70A6405640D02D0651CED0A4A
:1047200004D0002201231B05803C2403774064440D
:1047300097B484B296B27443070C7E43150C6F4352
:1047400080B26843361802D3012000043F183004B9
:10475000350C00197D41844688B29AB250430C0C46
:1047600062431F0C7C438EB27E43921902D3012612
:104770003604A4191604170C3618674101BC81B21F
:104780009AB25143040C62431B0C5C4380B2584301
:10479000121802D30120000424181004130C40182E
:1047A00063412D185E410020474106BC88B293B298
:1047B00058430C0C6343120C544389B251435B18A9
:1047C00002D301210904641819041A0C0918624162
:1047D0006D1856410020474118BCF902720D114373
:1047E000F0026A0D1043ED020A0D03D16D1940412C
:1047F0004941013B124E9B1B7600B3420ED26D0025
:1048000007D30130002671416646354301D1400887
:1048100040001B05C918E4072144F0BD0BDA013341
:1048200006D1013004D101314F0D01D04908F2E722
:10483000E1070020F0BD013631050020EBE7000064
:10484000FF030000F0B51C0D671E3F05DB1BE70AE8
:104850006405640D02D0661CF60A04D00022012310
:104860001B05803C2403D0252D060026F6432E662A
:104870001E096E66CE0FF619B44649004F0D02D0E0
:104880007E1CF60A03D000200021403F3F033E1B60
:10489000B600B444013F7F05C91B49082E6F01369D
:1048A00076089C02950D25437543ED137543AD13B2
:1048B00001356D10F603761B0CB4CC02450D2C436C
:1048C000A2B2B3B25A43270C7B43350C6F43A4B258
:1048D0006C431B1902D3012424043F191C041D0C32
:1048E000A4187D4124196D41009A91B2ACB2614384
:1048F000170C7C432B0C5F4392B25A43A41802D38B
:1049000001221204BF182204230C52187B41019C7F
:104910006C431B19520ED9010A434401A01A81B2FB
:10492000B2B2514303145A43360C734387B27743F0
:10493000D617D21900277E4136049B191704160C8E
:104940007F185E417316ED18F30100268033754120
:10495000A90F06D16400690AE8055B0A184309D269
:104960002FE00422944480337541A90AA8059B0ACC
:10497000184326D3404149412404009A019B0D006D
:104980005543641B4343E41A95B286B27543170C32
:104990007E43030C5F4392B25A43B61802D30122FE
:1049A0001204BF183204330C52197B4152429C410D
:1049B000002C02D40022013051414008CA071043A4
:1049C000490802B06246D7079210084BD218084B2C
:1049D0009A4203D212058918C919F0BD0020002A95
:1049E00001DC3900F0BD01331905F5E7FD030000D6
:1049F000FE070000624618CA94465A46002A20DB89
:104A000004E0624618CA944600291ADAC0186141C7
:104A10005B463B415C46B4405246FA402243444622
:104A20004D4662416B41904699462B46B3403D410D
:104A3000FC401C4352465B46A241AB4192469B461A
:104A40007047C01AA1414B463B414C46B4404246D8
:104A5000FA40224354465D4662416B4192469B4672
:104A60002B46B3403D41FC401C4342464B46A241CD
:104A7000AB41904699467047002200B5203200F0C5
:104A800010F8080000BD002200B500F00CF8CA17AD
:104A90009A4200D100BDD8430121C907414000BD61
:104AA00000220B150AD410B5944600F0A7F8141490
:104AB000013400DA0021CB17144C204700200021DC
:104AC00070476244343A0CD40C2A07DA040091404F
:104AD000904052422032D440214310BDD843D943A4
:104AE00010BD203207D40C4694405242203211416E
:104AF000D040204310BD0800C917203203D45242D1
:104B00002032104110BD1800190010BDC34A00101A
:104B10004A00520D144BD21A13DDFF2A1EDAD205B9
:104B2000CB0FDB071A43C300400F0903490A0843B0
:104B300010435B0001D301D0013070474308FBD222
:104B4000704702D0C80FC00770470A031213013222
:104B5000F8D1420F072AF5D1012200E0FF22C80F49
:104B600000028018C00570478003000000210A0081
:104B7000002104E000210A00C11704E00022002304
:104B800006E0C0460022CB1758405940C01A994150
:104B900030B5184CA21A002903D1010010D0002012
:104BA000203A4C1512D104D2013A001849414C0D5B
:104BB000FAD3114CA24204D212058918DB07C91896
:104BC00030BDD243520D00200021F5E703D4013A55
:104BD00000184941FBD50B324405C00A4D05284356
:104BE000C90A640003D0002460416141E1E7E0D3D9
:104BF0004408F8E732040000FE0700000A0DCC0F5D
:104C0000531E1B05C91A520503D3C943404200D3A2
:104C10000131520D03D0531CDB0A07D0121B0020B8
:104C20006400611C89078912803A1203014BD21A71
:104C300070470000FF030000023225D40C2A1CDA62
:104C40001125AD1A0B002B41083207350600EE4046
:104C5000904091403143F0CC63431A1500235A41F0
:104C6000554356435743BF02F41276057619674100
:104C7000ED177F19801BB94170470C220020C9171E
:104C8000490001310905DBE70902030E194300025F
:104C90005342203208D40C0019419440D84020439C
:104CA00000225041514170470800C917203B203273
:104CB000F1D50020002100227047F0B5FFF762F91E
:104CC00000F006F800F046F8FFF762F9F0BD0000CA
:104CD00000B5FFF793FF30A4FFF7AEFF00242C4D83
:104CE0002C4ED20702D3F6436D426641520004D2E5
:104CF000A246A346A846B14603E0A046A146AA465E
:104D0000B3466EA4A44601271F26FFF77AFE01379B
:104D1000013E212FF9D100BD594684B28DB26C43BA
:104D2000061475430B145E4382B25A43AD18EA175A
:104D300000D7D2431204B6182A042B0C121973415F
:104D4000404649469D009B17920F2A439041994146
:104D50003E2218E7494684B28DB26C43061475436F
:104D60000B145E4382B25A43AD18EA1700D7D24300
:104D70001204B6182A042B0C1219734150465946D6
:104D80009D009B17920F2A43504159413E22FAE65B
:104D9000BB4DF09DC556F6367D5100001A611400DA
:104DA00085880A00FB211900F0B5FFF7EBF8404DAC
:104DB0000C002C4001D0AC4202D1090D09050020A5
:104DC0001C002C4001D0AC4202D11B0D1B0500225F
:104DD0000026ED02002B04D502266B40694000D46A
:104DE00076424F1904D599420CDD0136694003E043
:104DF000BB4207DA013E6B40070010003A000F008B
:104E000019003B0040B4002A0FD1002B0AD05C00EF
:104E10006415013409D14C006415013402D1013903
:104E2000013B02E0002000212EE0FFF70BFD3E22B7
:104E3000FFF72AFE82468B46002000218046012291
:104E4000920791461DA4A44601271F26FFF7D2FD15
:104E50000137013E212FF9D14A4653460C3A01242D
:104E60006407002752081B0005D4934100197941BB
:104E70006408F7D104E05341001BB9416408F1D143
:104E8000CE0749104008304340BC002E0AD0094CE0
:104E9000094D01D5E443ED43F60701D100196941FD
:104EA000001969413D22FFF76EFEFFF771F8F0BD72
:104EB0000000F07F8D305A88A8F64332694FBB61FD
:104EC0000567AC1DB16E4096FCBAAD0F72DB0BAB43
:104ED000A66EF50739BD9FE576ABFE034B6297BA28
:104EE0005BD5FF01D694DBDDAAFAFF005DEAEE5642
:104EF00055FF7F006E77B7AAEAFF3F00BCBB555550
:104F0000FDFF1F00DEADAAAAFFFF0F006F5555F58C
:104F1000FFFF0700ABAAAAFEFFFF03005555D5FF10
:104F2000FFFF0100ABAAFAFFFFFF00005555FFFF8E
:104F3000FF7F0000ABEAFFFFFF3F000055FDFFFFD2
:104F4000FF1F0000ABFFFFFFFF0F0000F5FFFFFF9B
:104F5000FF070000FFFFFFFFFF030000000000004D
:104F6000000200000000000000010000000000003E
:104F70008000000000000000400000000000000071
:104F800020000000000000001000000000000000F1
:104F90000800000000000000040000000000000005
:104FA000020000000000000001000000000000807E
:104FB0000000000000000040000000005143434397
:104FC000C9188C46110C83B24B4310B4040C6143D6
:104FD00092B280B2504362431C041B0C001910BCF7
:104FE00059411304120CC01851416144704700002C
:104FF00048404140484000239C46114B5B6818479D
:1050000000239C460E4B1B6818470E4A936F9B0863
:1050100004D200239C460A4BDB681847F0B5146E97
:10502000556E576F166FFFF7F4FF064A1466556604
:1050300057671667F0BD00239C46014B9B681847D5
:10504000940F0020000000D0491A002808D108461B
:1050500070470000C10FC90700D54042002817D093
:10506000F44603B40B4B1B68984706BC81409E383E
:105070004042803107D20B0607D04900490AC005DB
:105080001043084360470130F8E7490A8902F5E711
:10509000704700006C0E002000239C46014B5B6AA9
:1050A00018470000940F0020034BDB6FFC461847A5
:1050B0007CDFED5100100000940F002070B5132329
:1050C0001D782A48FEF7D2FC0400012D11D0012DD5
:1050D00009DDA31E1B789B007F2B40DD8022210071
:1050E000234800F0B9F82348FEF7B8FC224B1860BB
:1050F00070BD542201001E4800F0AEF81F4B1A8804
:105100001F4B9A421CD1A7239B011A881D4B9A4220
:1051100016D11D4B1A881D4B9A4211D11C4B1A886F
:1051200094239B019A420BD11A4B1A881A4B9A422C
:1051300006D11A4B1A681A4B9A4201D1152307E07F
:105140001848FDF733FA99001748094A8850013387
:105150001F2BF8D9144A064B1A62DA61B7E7134BD2
:10516000134A42211348FDF787F9C0465346000011
:10517000940F00204C3300006C0E0020EE2900003C
:10518000C40F0000C20D0000962B0000C0B5000047
:10519000182B0000CC2A000010B50000FC2C0000E9
:1051A00051ED876414A80010B95100104CB60010DE
:1051B000C8B6001080B6001007B56046002800D1C0
:1051C00000BE01880A0A0230DF2AFAD1C9B2820879
:1051D00004D3028840880004104300E00068024ABB
:1051E0005050039007BD0000940F0020C30FDB0751
:1051F00041000A0E07D0FF2A08D00909054A89187C
:105200001943400770471900002070470249C91828
:10521000FAE70000000000380000F07F70B50500DC
:10522000054C200005F078FA280000F0D1FB2000A2
:1052300005F04AFA70BDC046540C00200148042114
:10524000014B1847800200207D3A0010014B1B687B
:105250001847000080020020014B5B6818470000DF
:105260008002002010B50C00036811002000984750
:1052700010BD0000F8B507000D001600437C002BA0
:1052800002D0002400200CE0036811002800984799
:105290002DE03B7C10E0022115483B689847601CDC
:1052A0000134B44214DA002CF3DD2B19013B1B78D6
:1052B0000D3B5A425341DBB22A5D0A2AF0D1002B42
:1052C000EED1A042E7DA211A28183B689847E2E7B6
:1052D000B04203DA311A28183B689847002E06DDE1
:1052E000AD19013D2B780D3B5A4253413B74F8BD3B
:1052F0003CB7001070B505000368002B16D00C4BAE
:105300001C6805E0290004C92000FFF7B3FFE4682A
:10531000002C09D02368002BF9D0064B1B68002B0A
:10532000F0D0A342F3D1EDE700232B6070BDC0465F
:105330004C0E0020500E002070B505000C000B68CC
:10534000802B05D023685A1C2260E418257170BD9B
:105350000800FFF7CFFFF5E710B582B0D0231B069A
:1053600000241C5701A9074805F0C6F9002806D1FA
:10537000019B9C4203D0034805F0CEF9012002B006
:1053800010BDC0465C0C002010B5024805F09CF929
:1053900010BDC0465C0C0020F0B5C64600B584B018
:1053A00001900D0016001C00FFF7D6FF80466B1C15
:1053B00005D0002C08D0194F194B1C6807E0019844
:1053C00000F0CAFF0500F4E7164FF5E7E468002C8B
:1053D00016D02368002BF9D0134B1B68002B01D08B
:1053E000A342F3D12A0001992000B847002EEDD046
:1053F00002ABD91D0A230B7001222000B847E5E754
:105400004346002B06D1681E8541E8B204B004BCB7
:105410009046F0BDFFF7B8FFF5E7C04665520010B3
:105420004C0E002075520010500E0020094A1368DF
:10543000002B0BD0834202D00C331A00F7E700296F
:1054400007D1C36813600023C36002E0002900D0C5
:10545000106070474C0E002010B5064B1C6800E031
:10546000E468002C04D06368002BF9D09847F7E774
:1054700010BDC0464C0E002070B5050000F06CFF5A
:1054800004000023012201002800FFF785FFFFF739
:10549000E3FF200070BD000070B5A2B004000E0054
:1054A000FFF75AFF05008422002101A8FFF7CEFE76
:1054B0003300220001A90848FEF7B8FA040001A849
:1054C000FFF718FFFFF7C8FF002D02D1200022B020
:1054D00070BDFFF759FFF9E7395300100FB400B55D
:1054E00083B004A901C90191FFF7D6FF03B008BC3E
:1054F00004B0184710B500F083F810BDF0B583B0C4
:1055000000251AE06B4607330D241C70002403E0CD
:105510001F78176001340133002C1CD19769BF0636
:10552000FCD4F5E71E78166001340133002C03D15A
:105530009669B606FCD4F5E701358D4210DA094BC1
:105540001A68465D084BD3185C4263415B00074C08
:105550001B5FB342D6D06B4607331E700024E5E7CD
:1055600003B0F0BD840E00200080FCBF900E002030
:10557000F0B583B0070000200EE013682B700134F3
:105580000135002C03D19369DB06FCD4F5E76B46AB
:1055900007331B780370300088420ADA084A126821
:1055A000956910242C4004D1461C38186B46DD1D2B
:1055B000E7E7002801D003B0F0BD0338FBE7C046A1
:1055C000840E002070B515001C000B4B1860FCF712
:1055D000F1FE002D06DA002C09DA01210748FFF759
:1055E00025FF70BD02212800FBF750FBF3E70221E5
:1055F0002000FBF74BFBF0E7840E00209002002018
:1056000010B5064B1B78064B1B78E12101230022C5
:1056100049020448FFF7D6FF10BDC04674BE001013
:1056200078BE0010004003400523CB56002B01DB61
:10563000934211D1094B9C4660444342584180003B
:10564000074BC058097901238B40013B9340184018
:1056500043425841C0B270470020FCE70000D0AF81
:10566000CC0D002070B50A79202A19D8174B9C461A
:105670006044434258418000154BC4580123934075
:10568000013B497949B2002910DB08002025AA1AFC
:10569000914218DC8B401C4201D00120404270BD79
:1056A0000C4B0D4A40210D48FCF7E6FE2020801AE5
:1056B000002805DB1A0082401442F0D00138F7E7D9
:1056C00001204042EBE701204042E8E70000D0AF74
:1056D000CC0D0020B4B7001080B70010E0B7001068
:1056E00070B505000C001600FFF79EFF002801D0E2
:1056F000002107E01548FCF759FF8B1912339B0076
:105700005A51013123798B420FD9237862781202E2
:105710001A43A3781B041A43E3781B0613434A0079
:105720009A5A530BE9D19219E7E701229A401300E4
:10573000013B074A944665446A425541B340054AD5
:10574000AD00A9580B43AB5070BDC046A0B70010C8
:105750000000D0AFCC0D0020F8B505000E00FBF71F
:10576000D3FA070031002800FFF77CFF041E09DB95
:10577000020031002800FFF7B3FF3800FBF7D0FA32
:105780002000F8BD0148FCF711FFC046A0B700108B
:10579000F0B505AC26784D006D18EC000419DC342A
:1057A0002468A446002E16D01F26052B15D95701B4
:1057B000A024640527434D006D18EC000419250052
:1057C000DC352F600D4D3543D8342560053B05325F
:1057D0001F242240E9E70026E7E79B065201134316
:1057E0004C006518EA0082181500DC352B60034B6D
:1057F0001E43D832166063462B60F0BD80E0000087
:10580000F0B5046801258D40AC430460002B34D012
:105810004D006D18EC0004192500C8351E682E6077
:1058200004355E682E6004359E682E60DB68DC34CB
:1058300023604C006518EB00D033C31880256D0140
:105840002B4380252D061D601D60164B8B40836009
:1058500005680E1D01231F00B7403D430560056824
:105860000E000836B3402B4303601F231A40611813
:10587000CB00C018D8300260F0BD4C006418E300C3
:10588000C3181C00C83480256D0225600434F82537
:105890006D0225600434C0252D032560DC3300240F
:1058A0001C60C6E7010101010CB430B500249DB0B5
:1058B00020AB0D000A4904CB059102A9029404947F
:1058C00006940794019300F071FE002803DB029B0D
:1058D0001C70069B2B601DB030BC08BC02B0184782
:1058E0008802FFFF0EB430B500240D499CB01FABF9
:1058F00005910C4904CB0500086802A902940494A0
:1059000006940794019300F051FE002803DB029BEC
:105910001C70069B2B601CB030BC08BC03B0184741
:105920008802FFFFA802002010B5514300F05AF88A
:10593000041E0ED00300083B5A6803239A43043A1E
:10594000242A15D80300132A05D800221A605A60A9
:105950009A60200010BD00210833016041601B2ABD
:10596000F3D98160C160242A06D003001033ECE72C
:105970000021FFF76BFCECE7030001611833416184
:10598000E3E7C046931E10B50C00222B0DD80A2A5F
:1059900004D0210002F0BEF8200010BD0028F8DA83
:1059A0002D2340420B700131F4E7002300200B70DF
:1059B000F3E7C04610B5FFF7E5FF10BD10B5034B88
:1059C0000100186800F00EF810BDC046A8020020C3
:1059D00010B5034B0100186803F0CAF910BDC046AA
:1059E000A8020020F0B557464546DE464E46E0B5D3
:1059F0000D000B3583B00700162D22D8102900D9D1
:105A0000BBE000F0B5FA102518230220D14EF318A0
:105A10001A005C68083A944200D1BEE00323626831
:105A20009A431300E268A168CA6091600122E318FA
:105A3000596838000A435A6000F09CFA2000083088
:105A40009EE007239D4300D597E0A94200D994E04A
:105A500000F08EFAF823FF339D4200D8ADE1680ACA
:105A600000D194E0042800D980E138239846A809A1
:105A700080443930C100B74E71180839CC68A14252
:105A800018D0032362689A431300521B0F2A00DDCB
:105A900036E1002AC6DA03239C4608E062466368C2
:105AA00093435A1B0F2A00DD2AE1002ABADAE46880
:105AB000A142F3D1320034690832944200D177E038
:105AC00003236168994389460B00491B0F2900DDB8
:105AD00077E1726132610029A8DA9F4A914500D9C5
