:020000041000EA
:1000000000B5324B212058609868022188439860DF
:10001000D860186158612E4B002199600221596106
:100020000121F02299502B49196001219960352056
:1000300000F044F80222904214D00621196600F024
:1000400034F8196E01211966002018661A6600F04E
:100050002CF8196E196E196E052000F02FF8012189
:100060000842F9D1002199601B49196000215960AB
:100070001A491B48016001219960EB211966A021F2
:10008000196600F012F800219960164914480160C1
:100090000121996001BC002800D000471248134993
:1000A000086003C880F30888084703B5996A0420EC
:1000B0000142FBD001200142F8D103BD02B5186610
:1000C0001866FFF7F2FF186E186E02BD00000240BE
:1000D000000000180000070000035F00212200005C
:1000E000F4000018222000A00001001008ED00E03C
:1000F00000000000000000000000000074B24E7A12
:1001000000200420F7010010C3010010C5010010F9
:10011000C1010010C1010010C1010010C101001097
:10012000C1010010C1010010C1010010C701001081
:10013000C1010010C1010010C9010010CB01001065
:10014000CD010010CD010010CD010010CD01001037
:10015000CD010010CD010010CD010010CD01001027
:10016000CD010010CD010010CD010010CD01001017
:10017000CD010010CD010010CD010010CD01001007
:10018000CD010010CD010010CD010010CD010010F7
:10019000CD010010CD010010CD010010CD010010E7
:1001A000CD010010CD010010CD010010CD010010D7
:1001B000CD010010CD010010CD010010CD010010C7
:1001C00000BE00BE00BE00BE00BE00BE00F04BF888
:1001D000103800BEF2EB8871AC6F0010D06F0010C9
:1001E0003402001090A31AE700202149086006C8D5
:1001F00081F3088810471F48006800282FD10DA4FC
:100200000ECC002902D000F012F8F9E71A491B4A77
:10021000002000E001C19142FCD1194988471949E9
:1002200088471949884700BEFDE701C901C29A42C3
:10023000FBD37047D06F0010C00000200C070020D7
:100240001C76001000000420000004201C76001022
:1002500000100420001004200000000070470B482C
:1002600003F078FC0047EFF30580C0B27047000050
:1002700008ED00E0000000D010070020840B0020F3
:10028000AD2500100105001069250010575600002B
:1002900006005250ABB36053706D00100600525010
:1002A000861C0302806D0010060052505422A29D4D
:1002B000906D001005005250DE65F4681C76001049
:1002C000F8B5C0460448054B10B5834203D0044B33
:1002D000002B00D0984710BD0C0700200C07002011
:1002E0000000000006480749091A8910CB0F591869
:1002F00010B5491003D0044B002B00D0984710BD17
:100300000C0700200C0700200000000010B5074C6F
:100310002378002B09D1FFF7D5FF054B002B02D026
:10032000044800E000BF0123237010BD180800201E
:1003300000000000E85D0010054B10B5002B03D055
:100340000449054800E000BFFFF7CCFF10BDC046E0
:10035000000000001C080020E85D001070B53B4B59
:100360001A683B4B1A603B4B1A68012313615368B0
:10037000DB05FCD4126A354B1A601B68344A1268DC
:100380009B1A354C2360354E3068716803F090FF3E
:100390000022334B03F0B1FE0022324B03F086FE05
:1003A00003F070FF304B1860206803F017FF002245
:1003B0002E4B03F0A2FE00222D4B03F080FE002204
:1003C0002C4B03F09AFE03F05DFF2B4B18602B4B78
:1003D000186800F0DDFB2A4B186804F0E4FE03F017
:1003E000FDFE0022274B03F088FE03F00FFF040000
:1003F000254D2860254A264B3068716803F056FE6B
:1004000030607160234803689A00D2189300224A32
:10041000944663442404240C1A6854402404240C95
:10042000802149010B431C60026828688023DB009F
:100430001B1A90008018820062441B04106843401D
:100440001B0C1B040A431360012070BD3C090020F3
:100450007C090020F4010020BC08002010080020C6
:1004600000207C4000708740F801002000408F4051
:100470000040AF4000004E40C408002000090020AA
:10048000C80800200000D03FFC010020FCA9F1D2E8
:100490004D62803F380900200C00054010B503F084
:1004A0009DFE0022064B03F028FE0022054B03F0C0
:1004B00006FE0022044B03F020FE03F0E3FE10BD15
:1004C00000408F400040AF4000004E4010B582B069
:1004D000084B1868FFF7E2FF074B1C6804F09CFE0E
:1004E00002000B000094054805F0ACF8012002B0B2
:1004F00010BDC046BC0800203C090020E85D00108B
:1005000070B58EB005F0AAF8734D7449286805F0EF
:10051000D7F904002D68002600960223022200214C
:10052000280005F0E9F900220121022000F05EFC1C
:1005300000220121032000F059FC0D96802676024E
:100540000A96F8235B020B93C0231B030C93102223
:100550000AA906A804F034FF23000F3322001C323E
:10056000DB01120313430793102206A90AA804F023
:1005700027FF0D9B05935A4B059A134033430D9368
:100580000B9B584A1A4080239B0413430B930C9BEC
:100590000593554B059A13409B009B080C930A96B4
:1005A0000AAB22000021280005F0DEF92B680124A7
:1005B000A34323432B600421082000F0FFFB4B4B97
:1005C00004221A604A4B7C325A654A4A1A664A4BE0
:1005D0001B689C43494B1C60494B1B680293494B69
:1005E0001B680193484B1B680093484B484A494994
:1005F000494800F0C9FB494C2060494A002100F0FD
:100600004DFB206800F081FB00240FE0454DA60063
:10061000705900F005FC0123190072599140D02255
:100620001206516271598B40936101340A2CEDDD41
:1006300000F026F900F054F9082001F08DFB3A484B
:1006400000F06EF9394A0021002000F0F1F8384836
:1006500000F07CF9374800F063F9374800F076F98C
:10066000364800F05DF9364800F070F91F4C2368F9
:100670009A00D2189300334A9446634419680904D7
:10068000090C8020400103431960226893009B18E5
:100690009A00624411688023DB044B401B0C1B044E
:1006A0000243136001F0A4F9274B02930024019444
:1006B000264B0093FA229200002301F059FA01F030
:1006C00097F9234B02930194224B0093224A002373
:1006D00001F04EFAFEE7C046F4010020385E00103B
:1006E000FF7FF0FFFFFFFFE0FFFF0AFE3809002059
:1006F00000000540FF030000500005405010054079
:10070000E8010020EC010020F0010020F8010020A9
:10071000C8080020C4080020480900200009002063
:1007200000007A45B0010020005E0010045E001059
:10073000105E0010245E0010285E00102C5E001079
:10074000305E00100C000540080900205D03001019
:1007500020090020CD04001090D0030070B50B4E8E
:1007600001242300726A9340D0252D06AB61052039
:1007700001F0F2FA2300326A93406B61052001F028
:10078000EBFA336A9C40AC6170BDC046B0010020FA
:1007900070B50E4E01242300726A9340D0252D06B9
:1007A0006B61052001F0D8FA2300326A93406B6137
:1007B000052001F0D1FA2300326A9340AB61052095
:1007C00001F0CAFA736A9C40AC6170BDB0010020B0
:1007D000154BDB6A142B15D0282B21D0102B03D0FE
:1007E000124B58221A601EE00F4B1B6B022B05D0D8
:1007F000042B18D10D4B02221A6014E00B4B01227E
:100800001A6010E0084B1B6B022B05D0042B0AD199
:10081000064B04221A6006E0044B03221A6002E031
:10082000024B05221A607047B001002034080020F6
:1008300070B504000D00100000F082F9002D12D1F7
:100840000E4B9A6A01239340D02212069361002C2A
:1008500011D1FFF783FF094B5A6A01239340D0223D
:100860001206936170BD054B9A6A01239340D02212
:1008700012065361EBE7FFF78BFFECE7B0010020B6
:1008800010B5082001F068FA104A00210020FFF797
:10089000CFFF082001F060FA0D4A00210020FFF789
:1008A000C7FF082001F058FA0A4B1B6B012B07D039
:1008B000094A00210020FFF7BBFFFFF789FF10BDA9
:1008C000064A00210020FFF7B3FFF6E7B85E0010EC
:1008D000C45E0010B0010020DC5E0010D05E00108D
:1008E00010B5082001F038FA0A4A00210020FFF76D
:1008F0009FFF082001F030FA074A00210020FFF78F
:1009000097FF082001F028FA044A00210020FFF791
:100910008FFF10BD945E0010A05E0010AC5E001052
:1009200010B51022002105F0DDF900F0BFF8064BEC
:10093000DA6901239340D02212065361FFF70EFFBC
:10094000082001F009FA10BDB001002070B50400C4
:10095000514B1A68052A00D99BE093004F4AD3589F
:100960009F464F48FFF7DCFF032001F0F5F9A05D3B
:1009700000F09CF8FFF70CFF0135200005F094F81B
:100980002E00A84200D886E0102DF0D1E9E700251E
:10099000F3E74448FFF7C4FF032001F0DDF9A05D51
:1009A00000F084F8FFF7F4FE0135200005F07CF834
:1009B0002E00A8426FD9202DEBD0302D08D0102D5D
:1009C000EDD13748FFF7ACFF032001F0C5F9E6E7AA
:1009D0003548FFF7A5FF032001F0BEF9DFE700254A
:1009E000E3E72F48FFF79CFF032001F0B5F9A05D76
:1009F00000F05CF8FFF7CCFE0135200005F054F85C
:100A00002E00A84247D9142DF1D1EAE70025F4E7DA
:100A10002448FFF785FFA05D00F048F8FFF7B8FE17
:100A20000135200005F040F82E00A84233D9282DCA
:100A3000EED03C2D05D0142DEDD11948FFF770FFF5
:100A4000E9E71948FFF76CFFE5E70025E9E700252E
:100A5000200005F029F8A8421DD9605D00F026F8B5
:100A6000FFF796FE0135F3E70D48FFF759FF032026
:100A700001F072F9A05D00F019F8FFF789FE013569
:100A8000200005F011F82E00A84204D9102DF1D154
:100A9000EAE70025F4E770BD340800207C5E001012
:100AA000E85E0010EC5E0010F05E001010B588B03B
:100AB0000400002302930522002103A804F07AFC1D
:100AC0006B463022DA712E3A05A9200004F0B8FFF7
:100AD00005A804F0E9FF0400072C07DC01226B469F
:100AE000D91D02A805F014F80134F5E705A902A8FC
:100AF00004F0AAFF02A804F0D7FF0138002309E0A0
:100B00009A000E49515801228A40D02109068A6173
:100B10000133013800280EDB02AA125C302AEFD024
:100B2000312AF5D19A000549515801228A40D02135
:100B300009064A61ECE708B010BDC046B0010020CC
:100B400010B5040004F0B0FF0138002309E09A005A
:100B50000E49515801228A40D02109068A61013389
:100B6000013800280DDB225C302AF0D0312AF6D182
:100B70009A000649515801228A40D02109064A614B
:100B8000EDE7032001F0E8F810BDC046B0010020F9
:100B9000F0B5CE4600B582B004003023C35C002B14
:100BA0003ED003681F6883681868391C04F097FA00
:100BB000011C0190206904F0B2FA216A04F094FA51
:100BC000061C2062E569291C04F0E8FA00282BD0F5
:100BD0002562616A381C04F082FA061C0199E068FB
:100BE00004F09DFA216A04F07FFA0190311C6069DB
:100BF00004F095FA011C019804F071FA061C011C1E
:100C0000281C04F0BDFA002807D1A569311C281C56
:100C100004F0C4FA002800D1351C63681D606762C7
:100C200002B004BC9146F0BDA3699946191C301C62
:100C300004F0A6FA0028CCD04B462362C9E7F8B5E9
:100C400004000D1C161C1F1C0021281C04F098FA1F
:100C5000002812D10021301C04F092FA00280CD197
:100C60000021381C04F08CFA002806D1E5602661CA
:100C700067613123E35C012B00D0F8BD291C002003
:100C800004F02DFAE060311C002004F028FA206105
:100C9000391C002004F023FA6061EEE7F0B583B060
:100CA00004000E1C151C111C301C04F06FFA0028E7
:100CB00018D1A661E5613023E35C002B12D0676890
:100CC0003B680193291C181C04F068FA00280BD01B
:100CD0003D60256AE669311C281C04F05FFA002893
:100CE0000AD0266203B0F0BD311C019804F048FA26
:100CF0000028EED03E60ECE7A669311C281C04F009
:100D00003FFA0028EED02662ECE770B504003023ED
:100D1000C35C002B10D143681D68056203681B6823
:100D20004362C669311C281C04F038FA002804D03C
:100D3000266230230122E25470BDA669311C281CB2
:100D400004F01EFA0028F4D02662F2E770B5040021
:100D50000D003023C35C002B12D03123C35C8B42C7
:100D60000ED0C168002004F0BAF9E06021690020CB
:100D700004F0B5F920616169002004F0B0F9606108
:100D80003123E55470BD000010B5040001604260DD
:100D9000836030230022C254074A0021FFF77EFF00
:100DA00000212000FFF7D2FF049B039A0299200044
:100DB000FFF745FF200010BD00007F4310B5830002
:100DC000084A944663441C6840226240C024144090
:100DD0008022520113431C60C000034B9C466044B8
:100DE000416010BD04C001400040014080000B4B39
:100DF0009C46604400290DD00823002A0CD0042210
:100E00001343026853400C221340802252011043C6
:100E1000036070470023F0E70022F1E704C00140BF
:100E200010B501238340D0221206936293610521FD
:100E3000FFF7C4FF10BD0000EFF3108072B6034B44
:100E40001B68002BFBD0BFF35F8F70472C0100D0D5
:100E5000BFF35F8F024B00221A6080F31088704747
:100E60002C0100D070B505000E001400FFF7E4FF60
:100E7000F208AA1815780721314001238B402B4234
:100E800005D1DBB22B431370FFF7E2FF70BD3100D9
:100E9000200001F007FC0000034B1B6802201840F3
:100EA000431E9841C0B2704700C0064000231F2B6C
:100EB00008D8054A9A189200BFF35F8F002111608D
:100EC0000133F4E77047C04640000034054A10780B
:100ED000431CDBB21370172B02D9130010221A70B7
:100EE0007047C04600020020074B9B68103080000E
:100EF0001950BFF35F8FBFF35F8F044B0021196060
:100F000082F310887047C04600ED00E0240100D055
:100F100010B5091A0B1F0A4A94466144094A9142C6
:100F200008D8DA0706D45B105B055B0D064818434A
:100F300080B210BD054B064A9921064801F018FB06
:100F4000FC070000FE0F000000E0FFFF0061001042
:100F5000105F00103061001010B5091A04394C08F8
:100F6000090B08D14905490D064A11430180064B7A
:100F70002343438010BD054B054AA121054801F0DC
:100F8000F7FAC04600F0FFFF00F8FFFF745F0010A3
:100F90001C5F00103061001001238340034A106879
:100FA0001840431E9841C0B27047C04600E100E0BF
:100FB000002904D0034B1860034B18607047034BA3
:100FC0001860FBE780E200E000E100E080E100E083
:100FD00010B5012383401800FFF7EAFF10BD0000A1
:100FE000024B9B6810308000C058704700ED00E055
:100FF00070B504000D00EFF3108672B60C4B1B6841
:10100000002BFBD0BFF35F8F2000FFF7E9FF094BF8
:10101000984201D0A84205D1320029002000FFF7F4
:1010200063FF70BD044B054A7C21054801F0A0FA1E
:10103000240100D0CD010010C8600010F45E001043
:1010400030610010F0B5C64600B584B001900D00C7
:10105000EFF3108672B6554B1B68002BFBD0BFF325
:101060005F8F534B9A68019C1034A300D758514BA3
:101070009F4207D0AF4200D196E002974E4BFB1A39
:101080002F2B08D9320039000198FFF72DFF04B04B
:1010900004BC9046F0BD0198FFF77EFF039000214D
:1010A0000198FFF795FFBFF35F8FFFF7DCF8011E94
:1010B00001D0844211D10123029C9C430020A368EB
:1010C000AB4212D00622A256002A0DDB53009B1819
:1010D0009A002000384CA418F1E72C21374B384AED
:1010E000FF31384801F044FA2000AB4255D10623C5
:1010F000E3569846002B36DB5A00424491002E4BB3
:101100005B189A68A260DA79E2719B795BB2A3718D
:10111000002B12DABD200002A08043465B0043444E
:101120009A00254B9B18284A1178997143461370F1
:1011300003990198FFF74CFFA4E7201D1E4A8B1866
:101140001A1D9B88D90A1C2907D159054915023156
:1011500049005118FFF7DCFEDEE71C4B1C4AA721B3
:10116000184801F005FA002912D100280ED0FF23FB
:101170008371184B8380144A1378A371164B0E4960
:10118000641A644163431B0D1370D1E7094FF2E702
:10119000201D1249FFF7E0FECAE76021104B084A04
:1011A000FF31084801F0E4F9024F6BE7240100D059
:1011B00000ED00E0CD010010040200209C60001052
:1011C000445F001030610010F908002048600010F2
:1011D000345F001000BDFFFFAAAA00003E020020FD
:1011E000C0600010F8B50400012606432D4BF31A29
:1011F0002F2B28D8FFF737F800282BD0EFF31087D4
:1012000072B6294B1B68002BFBD0BFF35F8F274DB5
:1012100022002449521A524155432D0D6DB2244BE0
:101220009B6880001B58B3421BD00023032B32D88D
:101230005A00D21891001B4A5218927952B2AA420F
:101240001FD00133F2E7C2211A4B1B4A49001B4849
:1012500001F08EF988211A4B174AFF31174801F027
:1012600087F9134B9B68174A1A50174B1A78A271CB
:101270001D70BFF35F8F0C4B00221A6087F310883C
:10128000F8BD08495A00D618B0000818FF26867124
:101290000E4B8380E9E7CC210D4B074A49000748F4
:1012A00001F066F904020020240100D0AAAA00007F
:1012B00000ED00E060600010585F00103061001029
:1012C00088600010CD010010F908002000BDFFFF6C
:1012D000946000100022044B02E0044902C3013272
:1012E000072AFAD97047C04600E400E08080808079
:1012F000024B9C4661448900016070474000003405
:101300000A4B1A68EFF3108172B61368002BFCD0F9
:10131000BFF35F8F054B1B68BFF35F8F00221A601E
:1013200081F3108840BF002000217047E0080020B2
:1013300010B50C00CB68834207D108000B699847B1
:10134000002809D02068616810BD9621054B064A27
:101350004900064801F00CF90023E3600020002159
:10136000F2E7C0465064001034620010646400105C
:1013700070B505000C00080000F03EFD200000F0F4
:1013800021FE0849200000F061FDFFF79FFD064B9C
:101390009C466044800068602C75A400034BE550B7
:1013A00070BDC0469116001040000034CC080020EB
:1013B00010B5002922D003681B7B99421ED8174B19
:1013C0009C466144090183689C4661440C684968F5
:1013D000002A19D003681B7B9A4215D883680F48EE
:1013E0008446624412019A18106853680200012072
:1013F0008B4201D80ED00020C0B210BD084B094A64
:101400003B21094801F0B4F8054B064A3B21064848
:1014100001F0AEF8A242EFD8EDE7C046FFFFFF0FA4
:1014200060630010C86100106464001010B50029EA
:101430001ED0037B99421BD84B005B18033B04680A
:10144000A4466344002919D0002A1DD0914221D01E
:10145000002A25D0047BA24222D8046850008018BC
:10146000033820188170197800291FD11A7010BD17
:10147000104B114A6821114801F07AF8104B114ABB
:101480006F310E4801F074F80F4B0E4A70210B4873
:1014900001F06EF80D4B0B4A7121084801F068F815
:1014A000044B054A6821054801F062F841701A7042
:1014B000DDE7C046B863001088610010D4630010F7
:1014C00020640010946100102C6400103864001037
:1014D00070B506000D001400002914D0002A14D0A5
:1014E000806873689847002806D0220029003000E1
:1014F000FFF79CFF280007E02A0021003000FFF7DB
:1015000095FF200000E0100070BD0800FCE700001F
:1015100070B5CE4600B583B00500009201930AABCA
:101520001C780BAB1B789946002C28D003685A7B9B
:10153000944209D10123002B1BD1002C3DD1200066
:1015400003B004BC914670BD002C0CD01A7B9442B1
:1015500009D81A6863001B19033BD3189B78002B2A
:10156000E9D00123E7E73F4B3F4A68213F4800F0BD
:10157000FFFF3F4B3F4A65213F4800F0F9FF0368FA
:101580009C7B002CD9D012D01A7B94420FD86200D9
:101590001219033A19688C466244517899730029EC
:1015A00000D1D9730023937053701370C5E72D4B8E
:1015B0002D4A68212D4800F0DBFF002C3BD02B6822
:1015C0001B7B9C4237D82D4BE3181B01AA6894461D
:1015D00063440099019A19605A60089A9A60099ABE
:1015E000DA602E68002C2CD031D0337B9C422ED870
:1015F00063001B19033B32689446634400229A70CF
:101600005A701A70717B22003000FFF761FF70730F
:10161000844200D093E7287D009A019B00F05EFC95
:10162000061E02D04B46002B17D00C9B002B00D17E
:1016300085E71E7083E7124B124A3B210E4800F0EB
:1016400097FF114B114AA521084800F091FF054B67
:10165000054A6821054800F08BFF2868210000F04A
:1016600067FEE2E7B863001088610010D4630010E1
:10167000506200100062001064640010FFFFFF0F52
:1016800060630010C861001060640010A861001061
:10169000F0B5DE4657464E464546E0B58BB009905C
:1016A000002308938200B24BD7583D0052E0B14B63
:1016B000B14A3F21B14800F05BFFB14BB14A3B2139
:1016C000B14800F055FF002B01D1002A68D100215C
:1016D000604600F023FEA04219D13268736806927A
:1016E0000793B3689846F3689A464346002B14D094
:1016F000002C18D02B681B7B9C4214D8631EEA6810
:10170000D35C08931B0218432861002015E09F4B0F
:101710009F4A8C219C4800F02BFF9E4B9C4A9021B5
:10172000994800F025FF964B9B4A4021964800F0CF
:101730001FFF00239A46984600206B68BFF35F8F17
:1017400000221A6087F310884346002B31D100280D
:1017500000D105E100F05CFB0029A8DB0023002498
:10176000069307946A68EFF3108772B61368002B2C
:10177000FCD0BFF35F8F2B689C465C7B002CD8D0DD
:101780009BD01B7B9C4298D8844BE6183601AB68F3
:101790009846464432687368121A8B41002B92DDDA
:1017A00032687368099800F099FB00239A469846BE
:1017B000C3E7089B1B022343994651461800C047C4
:1017C00006000F006A68EFF3108B72B61368002BE7
:1017D000FCD0BFF35F8F002F26DB002F52DD2B697B
:1017E000002B53D04B4574D100F012FB02000B1EAE
:1017F00075DB0100180092197B41984202D804D190
:10180000914202D901225242D317002B6DDB0021F5
:101810000491013103910294514601914146009196
:101820002800FFF775FE4BE02B69002BD5D04B4508
:101830001CD1069A079B10001900921BBB419942CC
:1018400002D804D1904202D901225242D317002B70
:1018500012DB002104910131039102945146019160
:10186000414600912800FFF753FE29E04C4B484ABF
:101870009F21454800F07CFE3E4B3F4A3F213F48B8
:1018800000F076FE002F01D1002EA8D12A68002C8E
:1018900047D0537B9C422ED10123002B41D1D37BD7
:1018A000002B44D1D473002C54D02B681B7B9C425A
:1018B00050D8013CEB689C46644423780133237084
:1018C00000232B616A68BFF35F8F13608BF310886E
:1018D00040E7334B2E4AA2212B4800F049FE254B0E
:1018E000254A3F21254800F043FE224B224A3F2152
:1018F000224800F03DFE002C0DD0137B9C420AD8FC
:1019000063001B19033B11688C4663449B78002BD2
:10191000C3D00123C1E7234B234A6821234800F0A9
:1019200027FE234B234AF621204800F021FE002BFE
:101930000AD0117B8B4207D85900CB18033B1168A2
:101940008C4663445C70ADE7164B174A6821174814
:1019500000F00EFE0A4B104A40210B4800F008FE32
:101960000BB03CBC90469946A246AB46F0BDC04683
:10197000CC080020786200107061001094620010A2
:1019800060630010C861001064640010DC62001025
:1019900018620010F4620010D4610010FFFFFF0F06
:1019A00000630010B863001088610010D463001059
:1019B0003C630010B861001010B50A4B5B68002B47
:1019C00004D00A210848FFF793FC10BD054C230002
:1019D000064A1021206800F0BFFB03212000FFF71A
:1019E000C7FCEEE74C020020E0080020B113001015
:1019F00010B5064B5B68002B01D0044810BD044BAA
:101A0000044A5C21044800F0B3FDC0464C020020AB
:101A100094630010E861001064640010F0B5D646CD
:101A20004F464646C0B588B0804616001F00109B42
:101A3000994612AB1B789A461F236B4400221A70FA
:101A400032E0002809D042461268127B904204D846
:101A5000421E4146C9688A5C42E03F4B3F4A4021F2
:101A60003F4800F085FD0020002B6DD05346002B31
:101A70006AD01199C84704000D0003000B4369D0D8
:101A800000293FDB00F0C4F900294FDB24184D4149
:101A9000A94202D804D1A04202D901246442E51728
:101AA000002D49DB26002F0043465A68EFF31084CF
:101AB00072B61368002BFCD0BFF35F8F1F236B44FB
:101AC0000493002303930293119B01934B460093CD
:101AD00032003B004046FFF71BFD031EB1D1020060
:101AE00041464968BFF35F8F00250D6084F310887D
:101AF000002B27D01F236B441B78002BB3D112027D
:101B00001043B1E732003B00361BAF41BB4202D865
:101B100004D1B24202D901267642F717002FC3DA68
:101B2000104B114A3F21114800F022FD0D4B0E4A87
:101B30003F210E4800F01CFD0A4B0B4A3F210B4889
:101B400000F016FD0120404208B01CBC90469946AA
:101B5000A246F0BD0020F7E760630010D4610010DA
:101B600064640010786200107061001094620010CC
:101B7000F0B585B006000C9F1100194301D1012278
:101B80000023BE600A9939613A607B600B997961E4
:101B9000D81701004240140043401D00241A8D4113
:101BA00000F036F900291CDB03000A000019694126
:101BB0008A4202D804D1834202D901204042C1178F
:101BC000002914DB0123029301970C4B00930200C0
:101BD0000B003000FFF722FFF860C043C00F05B0D4
:101BE000F0BD074B074A3F21074800F0C1FC044BFA
:101BF000044A3F21044800F0BBFCC04631130010EA
:101C0000786200107061001094620010F0B587B027
:101C100006000F00FEF727FB00281ED106246442B1
:101C2000E517A4197D41BD4202D803D1B44201D9C0
:101C300000240025002D13DB0494059500F0E8F83E
:101C4000002913DB241A8D41002D17DC14D030003D
:101C5000390000F0E9F807B0F0BD234800F022FD9C
:101C6000224B234A3F21234800F082FC1F4B204A8D
:101C70003F21204800F07CFC002CE8D0FFF7B8FEA4
:101C80000023029301931C4B0093049A059BFFF7DA
:101C9000C5FE002818DADAE7002300E00023002B55
:101CA000D5D1164B1A68EFF3108172B61368002B6A
:101CB000FCD0BFF35F8F114B1B68BFF35F8F002217
:101CC0001A6081F3108820BF0499059A0C4B5B6A57
:101CD0009A42E3D80A48806A884203D29A42DBD00B
:101CE0000123DCE70123DAE79C640010786200102E
:101CF000706100109462001001130010E0080020D1
:101D00000040054070B504000D0000F081F8002986
:101D100010DB02000B00001969418B4202D804D18C
:101D2000824202D901204042C117002908DBFFF797
:101D30006DFF70BD054B064A3F21064800F018FCB8
:101D4000024B034A3F21034800F012FC7862001066
:101D5000706100109462001010B5FA229200002306
:101D6000002103F09FF9FFF7CDFF10BD70B5EFF331
:101D700005833F2018401038EFF3108472B6194BDA
:101D80001B68002BFBD0BFF35F8F0123190081403C
:101D9000154A5163154A12781500C5402B4214D0DC
:101DA000114B5D6A8300124E9B599D4206D38300FE
:101DB000104D5B598A430D490A7007E00A4A031D1A
:101DC0009B0099589950002300E00023BFF35F8FD8
:101DD000044A0021116084F31088002B00D098473A
:101DE00070BDC046280100D000400540FA08002020
:101DF000E40800204008002010B50100024A034812
:101E0000FFF730F810BDC04608650010F808002044
:101E1000044B596A00E01900024B986A5B6A9942C8
:101E2000F9D1704700400540074B5B6A8B4204D2F2
:101E3000054B5B6AFAE7044B5B6A8B4203D1024BAA
:101E40009B6A8342F7D370470040054070B5040099
:101E50000D00EFF3108672B61B4B1B68002BFBD0F6
:101E6000BFF35F8F002D1CD02000FFF7B9F8174B90
:101E700098420BD019002000FFF7BAF8012120008A
:101E8000FFF7A6F80123A340114A1360A400114BE9
:101E9000E550BFF35F8F0C4B00221A6086F3108869
:101EA00070BDA2000B4B0021D1500122A2400A4973
:101EB0000B7893430B7005492000FFF7C3F800210E
:101EC0002000FFF785F8E4E7280100D06D1D001021
:101ED0003860054040080020FA080020F0B5DE46D2
:101EE00000B584B00500140001921E000293FFF7B4
:101EF0008FFF03948E4202D84ED184424CD9EFF327
:101F0000108B72B6274B1B68002BFBD0BFF35F8F83
:101F1000254A17780124AC40E3B23B431370234BAE
:101F20005C632A1D92000199D150AA0020490298B1
:101F300050501B6A234212D11C4B1B6C234208D009
:101F40000020BFF35F8F174B00221A608BF31088BD
:101F500023E0184B184AC121184800F009FBFFF78D
:101F600057FF8E4214D802D1039B834210D80E4BE8
:101F70001B78BB420ED00D4B1C625C631F222A40B3
:101F8000012393400E4A1360074B1F700120D8E7CE
:101F90000020D6E70120D4E7012004B004BC93461A
:101FA000F0BDC046280100D0FA08002000400540DE
:101FB000E40800202C650010EC640010506500104F
:101FC00080E200E010B5EFF3108472B60A4B1B6894
:101FD000002BFBD0BFF35F8F01238340074A1362BE
:101FE00007490A789A430A70BFF35F8F024B0022B9
:101FF0001A6084F3108810BD280100D0004005400D
:10200000FA08002010B500291ED0037B99421BD886
:102010004B005B18033B0468A4466344002919D0B5
:10202000002A1DD0914221D0002A25D0047BA24253
:1020300022D804685000801803382018817019785D
:1020400000291FD11A7010BD104B114A6821114888
:1020500000F08EFA104B114A6F310E4800F088FAEA
:102060000F4B0E4A70210B4800F082FA0D4B0B4AC1
:102070007121084800F07CFA044B054A68210548A4
:1020800000F076FA41701A70DDE7C046B8630010C0
:1020900094650010D463001020640010A065001047
:1020A0002C6400103864001070B506000D00140098
:1020B000002914D0002A14D080687368984700283B
:1020C00006D0220029003000FFF79CFF280007E01F
:1020D0002A0021003000FFF795FF200000E01000EB
:1020E00070BD0800FCE7000010B500234373013306
:1020F0008373037BC3730123027B9A4214D9002BA1
:102100000CD0027B934209D85A00D218033A0168D6
:102110008C4662440133DBB25370EDE70B4B0C4A43
:1021200068210C4800F024FA002A09D0924207D80E
:10213000016853009A18033A8A180023537010BD9F
:10214000024B034A6821034800F012FAB8630010FA
:1021500094650010D463001010B501734260836071
:10216000FFF7C2FF10BD000070B50400002901D1C7
:10217000080070BD002934D0037B994231D84B0050
:102180005B18033B0268944663445A78002AEFD0F8
:102190002DD0037B9A422AD853009B18033B00683A
:1021A000844663445D7800205870002925D0237B45
:1021B000994222D84B005B18033B20688446634455
:1021C000002058702000FFF76FFF06002900200054
:1021D000FFF7CAFF020031002000FFF765FF010092
:1021E000C6E7094B094A6821094800F0C1F9064BC6
:1021F000064A6821064800F0BBF9034B034A6821F0
:10220000034800F0B5F9C046B863001094650010AB
:10221000D463001070B505000C001600002928D00A
:102220002DD0037B99422AD84B005B18033B0268F0
:10223000944663445A78002A27D19A78002A2AD1F2
:102240001978FFF791FF0300002E03D0EA7B002AE4
:1022500027D1EC73002B37D1002C49D02B7B9C422B
:1022600046D82A6863001C19033C141900236370C4
:1022700070BD224B224A3821224800F079F9224BC6
:10228000224A6821224800F073F9224B1C4A3A2165
:102290001C4800F06DF9204B194A3B21194800F009
:1022A00067F9002A0AD0297B8A4207D851008A1888
:1022B000033A29688C4662445470CAE7124B134AA9
:1022C0006821134800F054F9002B0BD02A7B93426D
:1022D00008D843001B18033B2A6894466344002235
:1022E0009A70B9E7084B094A6821094800F040F99B
:1022F000054B064A6821064800F03AF900660010CE
:10230000B465001008660010B863001094650010F2
:10231000D4630010406600106866001070B50400B9
:102320000A00457B2900FFF775FF6073280070BD28
:1023300010B50400002966D0437B8B420ED00029E3
:1023400011D0037B99420ED84B005B18033B026807
:10235000D0188378002B0CD1002055E00121FFF725
:10236000DDFF012050E0294B294A6821294800F06F
:10237000FFF8002B1FD0227B93421CD85A00D318A1
:10238000033B2268D21813788B421AD0002B1BD043
:10239000227B934218D85A00D318033B2268D218E4
:1023A00053788B4216D0002BF0D11B4B1B4A672170
:1023B0001B4800F0DDF8154B154A6821154800F060
:1023C000D7F84378137007E0104B114A6821114881
:1023D00000F0CEF8437853700023837043700122DD
:1023E0002000FFF717FF0200617B814205D020002B
:1023F000FFF75AFE6073012006E00A4B074A6D2181
:10240000074800F0B5F8002010BDC046B8630010C2
:1024100094650010D463001094600010C86500102B
:1024200008660010E065001010B50400FEF74EFDD0
:1024300001002000FEF75CFFFF232371BFF35F8FD5
:1024400010BD10B50400FEF741FD01002000FEF7AD
:102450004FFFFF23237100236371BFF35F8F10BD14
:1024600070B505000C00062000F032FAC000210013
:1024700001F0C4FBC60908D00E4B9E4217D87F233B
:10248000184001303400460800E001246C62AE625E
:102490002C3580239B011D4300232B60062000F078
:1024A00017FA8000A101891901F0A8FB70BD002670
:1024B000014CEBE7FEFF0000FFFF0000002909D000
:1024C0000A22064B9C466044434258414000044B5C
:1024D000C252704780225200F3E7C0460080FCBF22
:1024E0008009002070B505000C00062000F0F0F90E
:1024F000002829D0164B9D4227D08022D203154BAD
:102500001A60154B1A60154B9B6811009943FAD15C
:1025100000212800FFF7D2FF21002800FFF7A0FFCD
:102520002C002C34E96A60224A406E21114080223E
:102530005201224311600A4B2B6380239B012343EA
:1025400010221A600323AB6470BD80221204D6E708
:102550000080034000E0004000F0004000C0004068
:102560000103000000BEFDE710B5FFF7FBFF000010
:1025700010B582B00C001900002A0CD0084B002ABC
:102580000BD00192009323000200064803F05AF892
:102590000120FFF7E7FF044BF1E7034AF1E7C046EC
:1025A00024670010346700103067001070B52B4BA3
:1025B0002B4A1A602B4B2C4A1A602C4B9A682A4BD8
:1025C0009343FAD12A4C01E008CC9847294B9C420E
:1025D000FAD300F0FDF8234B274A1A60234B9B687F
:1025E000DB43DB01FAD1254B40229A675A671A6711
:1025F000DA66234C09E0234B234A83212348FFF763
:10260000B7FF2000FFF710FF0834214B9C4209D28E
:102610002368002BF5D0012BEDD12000FFF711FF2F
:102620000834F2E71B4CA1681B4DC022280002F0C1
:10263000C7FEA560FDF717FE002800D000BEFEF71C
:1026400035FCFEF747FEFFF7B7F9144C01E008CC64
:102650009847134B9C42FAD370BDC04600E000403F
:10266000BFCDFBFE00F00040FE7F3C0000C00040FC
:10267000F806002008070020FFFFFF0100F00140DE
:10268000E80600208867001064670010A867001043
:10269000F806002000ED00E0000000200807002000
:1026A0000C0700200FB400B583B0084802F098FF73
:1026B000049B002B07D005A90191180002F0A0FF90
:1026C000034802F08DFF0120FFF74CFF74670010F4
:1026D00084670010F0B5DE46574680B583B007002A
:1026E0000E0092460A9A93424CD3190E01911B0296
:1026F000180000930A9A002301F0C2FA05007B003B
:10270000DB199C002D4B9C4664446368834200D2D5
:1027100060603B1FDBB29B46012B39D9C0239B0174
:102720002343802212011A60BB00254A99580029D0
:1027300005D0506901F062FA01300138FDD15346ED
:102740005B0122685340E022134080225201224361
:1027500013605B46012B26D980239B0123438022F3
:1027600012011A6065602A0000230098019901F0A7
:1027700087FABF00124BF850012003B00CBC924600
:102780009B46F0BD0F4B104A2D211048FFF7F0FE7D
:10279000012EC3D1C0239B01234303221A60A368E7
:1027A000DB07FCD5CBE72168714003230B401360A6
:1027B000A3680122B2401A42FAD0CDE7008000405F
:1027C00050080020FC670010EC6700101068001033
:1027D00030B583B00C2000F021F9FEF75DFB002836
:1027E0000DD00023092B05D899002D4A2D4888507B
:1027F0000133F7E72A4B2C4A5A6203B030BD2B4B0A
:1028000000229A6700F012F9294B01221A60274B27
:102810005B6C012BFBD1274B03221A60234B9B6B74
:10282000012BFBD1013300930433234A01212348B8
:1028300000F054F805230093214A0121214800F0BB
:102840004DF8214B0093002202210420FFF742FFA4
:102850001E4D00952B00002201210520FFF73AFFB5
:10286000104C00942300002200210720FFF732FFC4
:1028700000942300002200210820FFF72BFF0A4BC1
:1028800000932300002200210920FFF723FF009579
:102890002B00002200210620FFF71CFFADE7C046F9
:1028A00050080020006CDC021BB7000000800040D4
:1028B0003CB0004030B00040002F6859008002401A
:1028C000008C864700C00240001BB70040597307C8
:1028D0008000014BC058704750080020F0B583B00D
:1028E0000500019114001F000C2001F087F906007B
:1028F0003D4BE2183D4B9A4242D84201121A9301D5
:102900009B1ADB001B189901200001F077F90200E7
:10291000103A98235B009A4238D87B1E062B3BD88E
:10292000089B013B062B37D8089B9F423AD32309CB
:10293000B3423DD33F04089B1E033E432B68002B4C
:102940003CDB2B4B9D424BD080214901294B196028
:10295000294B1960294A92680B009343FAD1019BD5
:102960002B60A8602A1DC0239B01134321221A60FB
:102970002A68002AFCDAEE6008221A6003B0F0BD73
:102980001F4B204A11212048FFF7F2FD1F4B1D4A23
:1029900019211D48FFF7ECFD1D4B1A4A1C211A484E
:1029A000FFF7E6FD1B4B174A22211748FFF7E0FD12
:1029B000194B144A25211448FFF7DAFD2A683F23F2
:1029C0001340019A9342BCD1AB681B051B0D834297
:1029D000B7D1EB68EE22D2021340B342B1D1CDE7BA
:1029E00080218901B2E7C04680E84BD380F8A93244
:1029F00000C0024000E0004000F0004000C0004085
:102A00006068001054680010C06800100069001071
:102A10001C690010686900108069001080239B0009
:102A20000343014AD362704700800540064BAA2247
:102A300012011A602F22DA60044B054A1A60024B19
:102A40005B68002BFBDA70470040024000600240E8
:102A500000B0FA00704710B5002802D00B68496832
:102A6000984710BD10B50400002321680A78303A59
:102A7000D2B2092A08D89800C31858004B1C23600A
:102A80000B781B18303BF0E7180010BDF0B5D646A8
:102A90004F464646C0B582B005000091904601936E
:102AA0000A9B99460B9C0C9E0D9B9B070CD04E4697
:102AB0000C9B9946002C19D0013C571C305D019BA2
:102AC0000099A8473A00F5E72700A246B74207D287
:102AD000541C019B00992020A84701372200F5E7EC
:102AE00054460C964E460C9B9946E3E74E460D9B8A
:102AF0009B0706D4100002B01CBC90469946A24623
:102B0000F0BD4746D31BB342F4D2541C019B00993D
:102B10002020A8472200F5E7F0B5CE4600B586B0E4
:102B2000049205930C9D0D9C0EAE33789946109F30
:102B3000119B129EB2071BD4002B08D0F20706D5BA
:102B40004A46002A02D10C32324200D0013BBC423C
:102B500008D21F2C06D830222A550134F7E730223C
:102B60002A550134F20703D59C4201D21F2CF6D915
:102B7000F20615D5720505D4002C03D0BC4223D033
:102B80009C4221D00F9A102A2AD00F9A102A2FD0B7
:102B90000F9A022A34D01F2C02D830272F55013427
:102BA0001F2C05D84A46002A30D02D272F55013436
:102BB0000396029301940095059B049AFFF766FF24
:102BC00006B004BC9146F0BD671E002F06D00F9AD8
:102BD000102A01D03C00D5E7023CD3E73C00D1E706
:102BE000B206D2D41F2CD0D878272F550134D2E783
:102BF000B206CDD51F2CCBD858272F550134CAE7A4
:102C00001F2CC8D862272F550134C4E7720703D59B
:102C10002B272F550134CBE73207C9D520272F5555
:102C20000134C5E7F0B5CE46474680B595B008906B
:102C300009910A920B931CAB10CB1B7898461E9DF2
:102C4000219B9946002C03D110234A469A43914672
:102C50008027FF004B461F4018D0002C22D00027B1
:102C600014E04A4692061BD54121C918C9B20A3957
:102C7000C9B27E1C0CABD9552900200000F0BEFF64
:102C8000AC4210D31F2E0ED83700040029002000BC
:102C900000F0B4FFCBB2092BE3D83033D9B2E8E768
:102CA0006121E2E726004B460693209B05931F9B7C
:102CB000049303954346029301960CAB00930B9B40
:102CC0000A9A09990898FFF727FF15B00CBC90469F
:102CD0009946F0BDF0B5DE46574680B597B00A90EC
:102CE0000B910C920D931E9A08921F9C20AB1B789F
:102CF0009B46229B0993239D269B9A462243131EA3
:102D000003D1103352469A4392468026F60053462A
:102D10001E4006D0089A1300234333D00026370004
:102D20001AE0370018E05246920621D54122D21807
:102D3000D2B20A3AD2B27E1C0EABDA55099A2B00F7
:102D40000898210000F09CFFA5421DD812D01F2E2C
:102D500016D8370008900C00099A2B00089821001B
:102D600000F08EFFD3B2092BDDD83033DAB2E2E7C0
:102D70006122DCE7099B089A9342E8D9370004E016
:102D8000370002E0002700E0370053460693259BFA
:102D90000593249B0493099B03935B46029301973D
:102DA0000EAB00930D9B0C9A0B990A98FFF7B4FE9B
:102DB00017B00CBC92469B46F0BD0000F0B5D6465D
:102DC0004F464646C0B594B00A9006910B920793C1
:102DD0001C9C08941D9D099522002B0020002900B1
:102DE00001F0E9F9002800D0E8E001225242D64B78
:102DF0002000290001F0DAF9002800D0DEE00122ED
:102E00005242D24B2000290001F0BAF9002800D02C
:102E1000D4E000220023089D2800099C210001F035
:102E2000AFF9002800D0DFE0089E099F8023DB0077
:102E3000209A1A409046131E01D106331E930C9619
:102E40000D973A00324300D1D5E0380D4005400DD2
:102E5000BF4A944660443A03120BBE4B13431D0015
:102E600001F0BCF9BC4ABD4B01F047F9BC4ABD4B6F
:102E700001F01CF90C900D910022BB4B3000290091
:102E800001F00BF9B94ABA4B01F037F902000B0017
:102E90000C980D9901F00AF901F0B8F9824601F099
:102EA0009DF9B44AB44B0C900D9101F026F9002223
:102EB000B24B01F0FBF801F0A9F90500B04AB14BA3
:102EC0000C980D9901F019F90C900D91280001F062
:102ED00085F9AD4AAD4B01F010F902000B000C98DA
:102EE0000D9901F0DAF802000B000E900F9101F03D
:102EF00004F910901191A64B9C4665442B050D9347
:102F000000230C930E9C0F9D22002B002000290013
:102F100001F0CCF80E900F9122002B0000208021B0
:102F2000C90501F0BAF8129013910022994B109C38
:102F3000119D2000290001F0C2F80022964B01F0FB
:102F4000B5F802000B002000290001F0B8F80022BB
:102F5000924B01F0ABF802000B002000290001F0B9
:102F6000AEF802000B001298139901F09FF80200CE
:102F70000B000E980F9901F0A2F80022754B01F09A
:102F800095F80C9A0D9B01F0B8F802000B000C921A
:102F90000D9332003B0004000D0001F007F90028FA
:102FA0002BD001235B429C46E24400227A4B200056
:102FB000290001F084F80C900D911EE0209B0493F1
:102FC0001F9B03931E9B0293089A099B00920193F7
:102FD000079B0B9A06990A9800F0F4F814B01CBCF1
:102FE00090469946A246F0BD2E0080231B069C46C3
:102FF000644427001AE700239A4653466333C62BDE
:1030000021D80425209B1B0529D50C9A0D9B19005E
:10301000114310D0624A634B3000390001F0BEF812
:10302000002800D182E000225F4B3000390001F01F
:10303000A7F800287AD01E9B534506DD52469C1AFD
:10304000631E1E9303E00525DCE700231E93802307
:10305000DB00209A1A432092002500239A461F9BEA
:103060009D426DD25B1B99460223209A1A409046DE
:1030700003D0002D01D0002399465346002B07D0E2
:103080000C9A0D9B3000390001F019F806000F0072
:10309000002200230898099901F072F8002800D056
:1030A00086E0424B209A134004934B4603931E9BA9
:1030B000029300960197079B0B9A06990A9800F0D5
:1030C00081F8002D00D189E7209B9B0675D5452608
:1030D000471C079B0200069930000A9EB0475046E5
:1030E000C2178318534005220592013D0495002222
:1030F00003920A320292C40F01940093079B3A0094
:1031000006993000FFF78EFD4346002B00D165E79E
:1031100002000A9E0B9C1F9D131BAB424FD2571CF3
:10312000079B06992020B0473A00F5E71E9B002B2D
:1031300095D04346002B92D01E9B013B1E938EE7F9
:103140000023994690E7C046FFFFEF7FFFFFEFFFA8
:1031500001FCFFFF0000F03FFB799F501344D33F79
:10316000B3C8608B288AC63F0000F83F61436F6395
:10317000A787D23F71A379094F930A400000E03F2F
:103180001655B5BBB16B0240EF39FAFE422EE63F51
:10319000FF03000000002C40000024400000184005
:1031A0002D431CEBE2361A3F80842E41FFF7FFFFD0
:1031B000802109067B181F0073E7652688E7100049
:1031C0000CE7C046F0B5D646474680B597B00690A6
:1031D000079108920993209F1E9A1F9B10001900C7
:1031E00000F0E9FF002839D101225242BC4B1E9861
:1031F0001F9900F0C5FF00283FD101225242B94B70
:103200001E981F9900F0D2FF002845D10022B64B2E
:103210001E981F9900F0CAFF002856D10022B34B18
:103220001E981F9900F0ACFF00284ED10022002309
:103230001E981F9900F0A4FF002856D100239A463B
:10324000229B5B055CD500261F2E5BD8092F59D920
:103250000EAB30229A55013F0136F5E7229B0393CE
:10326000219B029303230193A14B0093099B089A8E
:1032700007990698FFF70AFC03E1229B0393219B21
:103280000293042301939B4B0093099B089A07998F
:103290000698FFF7FBFBF4E00423229A134010D0BA
:1032A000954A002B0FD00423229903912199029172
:1032B00001930092099B089A07990698FFF7E6FB8D
:1032C000DFE08E4AEDE70323EEE7229B0493219B88
:1032D000039302971E9B1F9C00930194099B089ADD
:1032E00007990698FFF76AFDCBE01E9A1F9B002006
:1032F000002100F0D2FE1E901F9101239A469FE705
:103300000627A0E71E981F9900F080FF040000F038
:1033100065FF02000B001E981F9900F0BEFEFA0028
:10332000774B9B181A685B680C920D9300F0E5FED2
:103330000A900B9100F08EFF050000F04BFF020099
:103340000B000A980B9900F0A8FE0A900B9100223E
:103350006C4B00F02BFF00282CD00135280000F02A
:1033600039FF02000B000C980D9900F00FFF0028A8
:1033700001D001340025002F2AD1200000F02EFFBB
:1033800002000B001E981F9900F087FE00225D4B83
:103390000A900B9100F0F4FE002844D10022594B12
:1033A0000A980B9900F002FF00283CD1E3073AD5B8
:1033B000013438E00022534B0A980B9900F0E0FEEC
:1033C0000028D8D1002D01D0EB07D4D50135D2E7A4
:1033D0000A941F2E11D8013F0A21280000F00EFC8C
:1033E000741C30310EAB99550A21280000F006FC00
:1033F000092D0ED905002600EBE70A9C1F2E0CD8DC
:103400007B1E002F09D00EAA302191551F000136D6
:10341000F4E7A0460A9C4646F0E71F2E03D80EAB01
:103420002E229A5501361F2E10D80A21200000F0B6
:10343000BDFB751C30310EAB99550A21200000F000
:10344000B5FB041E01D02E00EDE72E000323229AC7
:103450001340012B1AD01F2E06D85346002B2FD015
:103460000EAB2D229A550136229B0393219B02938A
:1034700001960EAB0093099B089A07990698FFF7EF
:1034800005FB17B00CBC90469A46F0BD219B002B63
:103490000AD05346002B02D10C3313420ED0219B8D
:1034A000013B2193190000E021998E42D3D21F2EB7
:1034B000D1D80EAB30229A550136F6E72199F4E7C0
:1034C000229B5B0704D50EAB2B229A550136CBE726
:1034D000229B1B07C8D50EAB20229A550136C3E7A5
:1034E000FFFFEFFFFFFFEF7F65CDCD4165CDCDC184
:1034F000886B00108C6B0010806B00107C6B0010D0
:10350000986B00100000E03FF0B5DE4657464E468F
:103510004546E0B593B083460B910A92119300297A
:1035200000D1E6E200275C46119B1878002800D104
:10353000E2E2252809D07D1C0A9B3A000B99A0479E
:10354000119B013311932F00EEE7013311930026F5
:103550001DE00B00303BDBB2092B37D92A293AD0CA
:1035600000239B46119B1A782E2A44D000239846AC
:10357000119A1378683BD9B2122900D980E08B00E8
:10358000CB49CB589F4601231E4301321192119A19
:1035900011780B00203BD8B21028DAD88300C54838
:1035A000C3589F4602231E4301321192EFE70423C2
:1035B0001E4301321192EAE708231E4301321192A1
:1035C000E5E710231E4301321192E0E711A8FFF74F
:1035D00049FA8346C6E71C9B1A1D1C921B68002BE8
:1035E00004DB9B46119B01331193BBE70222164378
:1035F0005B429B46F6E78022D20016435A1C11928A
:103600005A781300303BDBB2092B04D92A2A07D0A1
:1036100000239846ACE711A8FFF724FA8046A7E7F5
:103620001C9B1A1D1C921B68002B04DB9846119BE7
:10363000013311939CE70023F8E780235B003343B9
:10364000511C119152786C2A01D01E0018E0C02341
:103650009B001E430131119112E080233343511C22
:1036600011915278682A01D01E0009E0C0231E4340
:103670000131119104E080235B001E43013211925D
:10368000119B18780300253BDAB2532A00D926E2B1
:103690009300894AD3589F4680239B001E430132E2
:1036A0001192EDE780235B001E4301321192E7E7A0
:1036B000782809D0582838D06F2838D0622838D0D8
:1036C00010239E430A2500E01025582833D069288E
:1036D00003D0642801D00C229643730501D5012242
:1036E000964369282AD0642828D0B30500D59FE0E6
:1036F000F30500D5B8E0730600D4CAE01C9A111D8A
:103700001C911168FF220A4005965B4604934346CC
:10371000039302950023019300920A9B3A000B99B0
:103720002000FFF77FFA070027E01025CDE70825E6
:10373000CBE70225C9E720221643C8E7B30520D40A
:10374000F30550D4730666D51C9A111D1C9111689F
:10375000FF220A40D317D118594005965B460493BF
:10376000434603930295D20F019200910A9B3A00BF
:103770000B992000FFF756FA0700119B01331193B4
:10378000D2E61C9BDA1D07218A43110008311C91E7
:10379000116853689C46DB170C930D930C9A0D9B94
:1037A000100048400E90624653400F930E980F99B8
:1037B0000C9A0D9B801A99410E900F9108965B46CA
:1037C0000793434606930495002305936346DA0F57
:1037D0000292009001910A9B3A000B992000FFF79A
:1037E00079FA0700C9E71C9A111D1C911268D317BA
:1037F000D118594005965B460493434603930295BE
:10380000D20F019200910A9B3A000B992000FFF71A
:1038100009FA0700B1E7330605D51C9A111D1C9162
:103820000023D25E96E71C9A111D1C91126891E745
:103830001C9BDA1D07218A43110008311C91089650
:103840005B46079343460693049500230593029332
:1038500053681268009201930A9B3A000B9920006A
:10386000FFF738FA070088E71C9A111D1C9105968E
:103870005B46049343460393029500230193136828
:1038800000930A9B3A000B992000FFF7CBF9070041
:1038900073E7330606D51C9A111D1C911268120499
:1038A000120C31E71C9A111D1C9112682CE7C046BE
:1038B0009C690010E86900102C6A001046281AD094
:1038C0001C9B0733072293431A0008321C9204966C
:1038D0005A460392424602921A685B68009201932C
:1038E0000A9B3A000B992000FFF76CFC0700119B24
:1038F0000133119318E620231E43E1E7672801D026
:10390000472802D180231B011E43452801D04728A8
:1039100001D120231E431C9B0733072293431A0027
:1039200008321C9204965A460392424602921A6842
:103930005B68009201930A9B3A000B992000FFF705
:103940003DFA0700119B01331193EDE5022333404B
:103950009A461ED001261C9B1A1D1C927D1C1878AD
:103960000A9B3A000B99A0475346002B15D1119B97
:10397000013311932F00D7E5551C0A9B0B9920208A
:10398000A04733002A005E1C9F42F5D8BB461700B3
:10399000E1E701233A005F46F5E72A00A0465C46CE
:1039A00006E0571C0A9B0B992020C0472E003A00C6
:1039B000751CB442F5D815004446D8E71C9B1A1D67
:1039C0001C921B689A464346002B00D1013B55468A
:1039D0002A78002A05D05A1E002B02D00135130088
:1039E000F6E75346ED1A8023DB003340994602D0B8
:1039F000454500D9454602233340109308D03A008C
:103A0000564629004D4623004446984689461FE005
:103A10003A0023005C469B4606E0571C0A9B0B9924
:103A20002020D84735003A006E1CAC42F5D835004E
:103A30005B46A346564629004D464446984689466D
:103A400006E01C000136571C0A9B0B99C0473A0040
:103A50003078002804D0002DF4D0631E002CF0D163
:103A600017004D464446109B002B03D1119B013398
:103A7000119359E55C4606E0571C0A9B0B992020E0
:103A8000C04735003A006E1CAC42F5D817004446DA
:103A9000ECE7212333431C9A111D1C9112680092FC
:103AA00005930823049343460393102302930023B2
:103AB00001930A9B3A000B992000FFF7B3F8070027
:103AC000119B013311932FE57D1C0A9B3A000B9942
:103AD0002520A047119B013311932F0024E57D1C65
:103AE0000A9B3A000B99A047119B013311932F00B9
:103AF0001AE50B4B9B4615E5A3460A9B9F420CD348
:103B00005A1E0A9B0B990020D847380013B03CBCC2
:103B100090469946A246AB46F0BD3A00F1E7C04652
:103B2000552A001000B585B0029003910121009341
:103B300013004A4202A90248FFF7E6FC05B000BDA7
:103B4000572A001001480421014B18478002002029
:103B5000753B001010B5010018231B881422108833
:103B6000984710BD10B5010018231B881622108835
:103B7000984710BDF0B5C64600B507000E000025F9
:103B80000123984600E00135B5420AD2AC003C1949
:103B90002068FFF7DFFF20600028F4D1002398465B
:103BA000F1E7404604BC9046F0BD0000124A936F16
:103BB0009B0815D29066D166002905D0FFE7FFE784
:103BC000FFE7516F106F704704B580210906C217D7
:103BD0005140002800D0C84302F0EEF8002104BD97
:103BE000F0B5146E556E576F166FFFF7E3FF14664E
:103BF000556657671667F0BD000000D0114A936FF5
:103C00009B0813D210665166002905D0FFE7FFE735
:103C1000FFE7516F106F704704B5002801D00020F6
:103C2000C04302F0C9F8002104BDC046F0B5146ECF
:103C3000556E576F166FFFF7E5FF146655665767A9
:103C40001667F0BD000000D094464E4A926F92086D
:103C5000624601D230E0C046F0B54A4EB56F6D08FD
:103C6000FCD3346E756E776F366F00F025F894468E
:103C7000444A14665566576716676246F0BDC046EB
:103C80009446404A926F9208624601D258E0C0467C
:103C9000F0B53C4EB56F6D08FCD3346E756E776F22
:103CA000366F00F04DF89446364A146655665767ED
:103CB00016676246F0BDC046002B24DB11D00029F8
:103CC0003EDA00B5C943404200D1013100F038F876
:103CD000C943404200D10131DB43524200D101339C
:103CE00000BD002AEBD1002801D1002905D0002019
:103CF000C90FC90701D1C043410800B502F054F80B
:103D00000022002300BD00B500290ADBDB4352423C
:103D100000D1013300F014F8C943404200D1013111
:103D200000BDC943404200D10131DB43524200D1C2
:103D3000013300F005F8DB43524200D1013300BDEE
:103D4000002923D1002B18D1002A0CD0BC460D4FDE
:103D500038667A6600210023FFE7FFE7FFE77A6F06
:103D6000386F67467047002801D00748010000B54A
:103D700002F01AF80022002300BD02000B00002010
:103D800000217047000000D0FFFFFFFF002B00D094
:103D9000BFE0130C28D1002AE7D080B4114F396658
:103DA0007A66FFE7FFE730B4040C7B6F396F1B04C2
:103DB00023433B667A66FFE7FFE7FFE7C04684B22E
:103DC0007B6F3D6F1B0423433B667A66FFE7FFE78B
:103DD000C04600232C042D0C7A6F386F00196941FE
:103DE000B0BC7047000000D0F0B594460025140E1A
:103DF00001D112020835140F01D112010435940FBC
:103E000001D192000235D40F01D152000135D40BFB
:103E10000134254F7C66254C3C660E0C93B2FFE7BF
:103E2000FFE7FFE73C6F6643360C7703BE467343FC
:103E3000DF0B5B04C01AB941130C7343DB18C91ABA
:103E4000CE086643360CB64493B273431F0F1B0172
:103E5000C01AB941130C73431F0B1B05C01AB9419B
:103E6000860D8F023E436643360C092D24DB520A31
:103E70007243801A7703460A6643360C16235B1B8F
:103E8000DE40DF40BF1964466643821B704604353E
:103E900006330100D940A840C01900D30131A24225
:103EA00006D20023F0BD0000000000D0FFFFFFFF9E
:103EB000121B0130F3D3F1E709277F1BFE40644654
:103EC000A2B27243801A00D20139220C7243130C41
:103ED0001204821A99410B00704604351337010011
:103EE000F940A840801900D30131002B02D1A24231
:103EF0000AD2F0BD013000D30131121BFAD2013BCE
:103F0000F8D1A24200D2F0BD013000D30131121B22
:103F1000F7E7F0B51C0C00D080E00CB400251C0ABB
:103F200004D11B02160E3343120208351C0B04D1B8
:103F30001B01160F3343120104359C0B04D19B0067
:103F4000960F334392000235DC0B02D192185B418D
:103F500001351C00971864410134464F7C66464C7D
:103F60003C660E0CFFE7FFE7FFE7C0463C6F664389
:103F7000360C7703BE4697B27743C01B00D2013997
:103F8000C01B00D201399FB27743C91BC91B170C54
:103F900077437E04FF0B801BB941CE086643360C85
:103FA0000C2D33DBB644120B1F053A431B0B97B2A3
:103FB0007743C01B00D201399FB27743C91B170C4E
:103FC00077433E043F0C801BB941860D8F023E4370
:103FD000664329277F1BFE400C3D7746AF40BF1943
:103FE00030BCA2B2ABB272437343801A9941220C27
:103FF0007243130C1204801A994102000B0001371E
:10400000001BA941F9D2781E0021F0BD0C277F1BAF
:10401000FE4077467F0BAF40FF19E0E700245D1CB0
:1040200007D0144F7D663966FFE7FFE7FFE7FFE73C
:104030003C6F95B29EB265436643401BB141150C7F
:104040001E0C6543664336042F0C3E432D04401B73
:10405000B141994204D202000B0020000021F0BDC2
:1040600001D19042F7D3801A994101349942F2D399
:10407000F6E70000000000D0FFFFFFFF44464D467A
:1040800056465F46F0B47047F0BCA046A946B2461B
:10409000BB46704748404140484018B41B4B5B68E2
:1040A000FC46019308BD04DF6B46001018B4174BA3
:1040B0001B68FC46019308BD00DF7546001094465E
:1040C000134A926F920809D2624618B40F4BDB680C
:1040D000FC46019308BD0CDF2D4900100C4AF0B5D9
:1040E000146E556E576F166F6246FFF7EEFF084A63
:1040F0001466556657671667F0BD18B4034B9B6886
:10410000FC46019308BD08DFD14700108409002058
:10411000000000D0FFB550404240504059404B4055
:10412000594000E0FFB5154F4C00640D03D0BC4270
:1041300004D10C0314D80020090D09055C00640D9E
:1041400003D0BC4204D11C030AD800221B0D1B055E
:1041500001264B4009D44B4003D58B4200D182420B
:10416000FFBD9942FCD19042FFBD0B43DB180343D6
:104170001343F5D0C9434918FFBD0000FF070000F5
:1041800000B5FFF7CFFF804100BDC04600B5FFF787
:10419000C9FF01D9002000BD012000BD00B5FFF717
:1041A000B9FF01D9002000BD012000BD00B5FFF717
:1041B000B1FF804100BD012040054A00121804D81B
:1041C0005A00121801D800207047012070470020C3
:1041D000704700000021002805D17047C1174840F2
:1041E000401AFAD0C90713B5064B1B6898470CBC98
:1041F000441CA2401005120B0349091B0905194371
:10420000114310BDDC0800201F04000010B54C0055
:10421000620D8023D218DB00D21A5B057E2A10DDE6
:104220009E3A13DACC170903490819435242D14088
:10423000640001341532202A05DAD0400843604377
:1042400010BD002010BD0846604310BDC80FC01847
:10425000013810BD18B4044B5B6AFC46019308BDDD
:1042600024DF614B001000008409002018B4044BC7
:104270001B6EFC46019308BD60DF6F4C0010000010
:104280008409002018B4044BDB6FFC46019308BD81
:104290007CDFF94B0010000084090020024A034B28
:1042A00000B500F0BDF900BD182D4454FB211940A4
:1042B0008A0002D3920D092A08DA18B4064B1B6C47
:1042C000FC46019308BD40DFA34D001000B5FFF789
:1042D000E5FF04BC9646F0E78409002070B513237F
:1042E0001C78012C0CD0012C13DC022C02DC1F4AA0
:1042F0001F4B9A641F48FFF72DFC1F4B186070BDC1
:1043000000231F2BEFD899001848194A8850013311
:10431000F7E71A48FFF726FC05001948FFF722FCCB
:10432000023803789B007F2B19DD8022290010487A
:1043300001F046F8022CD8D1124B1A88B5231B0283
:104340009A4209D1104B1A88104B9A4204D1104B53
:104350001A88104B9A42C8D00020FEF7A3F90E4BE2
:104360000E4A32210E48FEF703F9C04631460010CE
:10437000840900204C330000DC0800205344000076
:104380005346000054380000D83800004946000069
:104390009C38000059460000E86B0010906C00103B
:1043A000486C0010F0B5DE4657464E464546E0B52F
:1043B00085B004000D00009201930E998A460029F1
:1043C00044DD191101204042FFF718FC039000233F
:1043D0009B4629E00C239946AB11039A53431D22B7
:1043E0004946521A134101335B109846202252422B
:1043F0008B1821D422009A40170023004A4693408C
:104400001E004346D917009A019B404600F04AFE21
:1044100034003D00241A8D415B464A469340434494
:104420009B4653469B1A9A465346002B11DD534632
:104430000C2BCFDCD146CFE720235B1A2200DA40D9
:1044400013002A008A4017001F43D6E70023039376
:10445000BDE7009A019BAB4209DC01D1A24206D81C
:10446000009A019BA41A9D4101239C46E344009AB3
:10447000019BAB4209DC01D1A24206D8009A019B04
:10448000A41A9D4101239C46E344002D0FDB002D1F
:1044900016DB0F9B002B01D05A461A602000290022
:1044A00005B03CBC90469946A246AB46F0BD009A8A
:1044B000019BA4185D4101235B429C46E344E6E76F
:1044C000009A019BA4185D4101235B429C46E34492
:1044D000DFE70000F0B5CE46474680B589B01E0044
:1044E000109C04940592CB0F9C460A0D5205520D68
:1044F0000F033F0B80235B0302901F430397F40FCE
:10450000A046350D6D056D0D3403240B059E1C432F
:104510002700049C002C01D0002323603D4B9A42CD
:104520006BD0002D6CD0002A00D170E09D4269D084
:104530006B1E934266DC3CD06346002B06D0029B88
:10454000039C00215842A1410290039107AB0193C3
:10455000521B009232003B0002980399FFF722FFA2
:1045600002000B0012184B41140002921A00BB42C9
:104570000ADC01D1B44207D8029BB34209D1BA4246
:1045800007D1079BDB0704D5801BB941079B01338B
:1045900007934346002B02D0079B5B420793049A84
:1045A000002A01D0079B13601B4A521BFFF75EFED7
:1045B00028E0039ABA420CDD6246002A10D1B619EF
:1045C0007F4102980399801BB941013207921D0077
:1045D000DFE7029C039DBD4214D1B442ECD811E048
:1045E000B6197F4130003900029C039D001BA94190
:1045F0000122524207921D00CBE70020074901E04B
:104600000020064909B00CBC90469946F0BD002038
:104610000021F7E7FF070000330400000000F07FEF
:1046200010B582B000240094FFF754FF02B010BD13
:1046300007B56046002800D100BE01880A0A023092
:10464000DF2AFAD1C9B2820804D302884088000464
:10465000104300E00068024A5050039007BD00007C
:10466000840900200FB403BC0CBCF0B50124E4079E
:10467000634000E0F0B50C0DCF0F661E3605891BB8
:10468000640503D3C943404200D30131640D03D014
:10469000661CF60A07D0E41B00207F00791C8907FE
:1046A0008912803C24031D0DDF0F6E1E36059B1BF7
:1046B0006D0503D3DB43524200D301336D0D03D0AC
:1046C0006E1CF60A07D0ED1B00227F007B1C9B07A7
:1046D0009B12803D2D032F1B661B58D4A446202E11
:1046E00046DA20371400BC401D00BD40F240334183
:1046F0002A4380185941CB0F05D0C943C04300223B
:1047000064425041514162464D0D28D10D0D07D1F3
:1047100000281FD0241940414941013A0D0DF9D01C
:10472000640006D3013000D30131002C01D14008D0
:104730004000013A0BD4941CE40A04D11205114440
:10474000DB071944F0BDD907204B194300E0D90716
:104750000020F0BD0029DDD1002CDBD1F0BD0132FD
:10476000C6074008CD0728434908002EE1D0D9E705
:104770003C2E29DA203E40371400BC4000D00124F2
:10478000F24014431A00BB401C43D317ACE7AC46BD
:10479000202F08DA20360400B4400D00B540F84060
:1047A00039412843A5E73C2F0CDA203F403604006E
:1047B000B44000D00124F84004430800B1400C4349
:1047C000C117EAE710001900002494E70000F07F09
:1047D000F0B50C0D661E3605891BE60A6405640DEE
:1047E00002D0651CED0A04D0002001210905803C9F
:1047F0002403A4461C0D671E3F05DB1BE70A640566
:10480000640D02D0651CED0A04D0002201231B05B3
:10481000803C24037740644497B484B296B27443D6
:10482000070C7E43150C6F4380B26843361802D3E1
:10483000012000043F183004350C00197D418446E6
:1048400088B29AB250430C0C62431F0C7C438EB268
:104850007E43921902D301263604A4191604170CBC
:104860003618674101BC81B29AB25143040C6243CD
:104870001B0C5C4380B25843121802D30120000481
:1048800024181004130C401863412D185E410020B9
:10489000474106BC88B293B258430C0C6343120CD8
:1048A000544389B251435B1802D3012109046418AF
:1048B00019041A0C091862416D185641002047412D
:1048C00018BCF902720D1143F0026A0D1043ED029B
:1048D0000A0D03D16D1940414941013B124E9B1B0A
:1048E0007600B3420ED26D0007D30130002671412D
:1048F0006646354301D1400840001B05C918E4074E
:104900002144F0BD0BDA013306D1013004D101316D
:104910004F0D01D04908F2E7E1070020F0BD013654
:1049200031050020EBE70000FF030000F0B51C0D8F
:10493000671E3F05DB1BE70A6405640D02D0661C99
:10494000F60A04D0002201231B05803C2403D02555
:104950002D060026F6432E661E096E66CE0FF6194A
:10496000B44649004F0D02D07E1CF60A03D0002049
:104970000021403F3F033E1BB600B444013F7F058A
:10498000C91B49082E6F013676089C02950D2543F8
:104990007543ED137543AD1301356D10F603761BAA
:1049A0000CB4CC02450D2C43A2B2B3B25A43270C2F
:1049B0007B43350C6F43A4B26C431B1902D3012413
:1049C00024043F191C041D0CA4187D4124196D41B9
:1049D000009A91B2ACB26143170C7C432B0C5F433D
:1049E00092B25A43A41802D301221204BF1822041F
:1049F000230C52187B41019C6C431B19520ED901A8
:104A00000A434401A01A81B2B2B2514303145A437B
:104A1000360C734387B27743D617D21900277E41ED
:104A200036049B191704160C7F185E417316ED1897
:104A3000F301002680337541A90F06D16400690A8D
:104A4000E8055B0A184309D22FE00422944480331E
:104A50007541A90AA8059B0A184326D3404149413C
:104A60002404009A019B0D005543641B4343E41A40
:104A700095B286B27543170C7E43030C5F4392B226
:104A80005A43B61802D301221204BF183204330C61
:104A900052197B4152429C41002C02D40022013029
:104AA00051414008CA071043490802B06246D7077F
:104AB0009210084BD218084B9A4203D2120589185B
:104AC000C919F0BD0020002A01DC3900F0BD013316
:104AD0001905F5E7FD030000FE070000624618CA4D
:104AE00094465A46002A20DB04E0624618CA9446DF
:104AF00000291ADAC01861415B463B415C46B4406C
:104B00005246FA40224344464D4662416B4190462C
:104B100099462B46B3403D41FC401C4352465B4600
:104B2000A241AB4192469B467047C01AA1414B46F9
:104B30003B414C46B4404246FA40224354465D460F
:104B400062416B4192469B462B46B3403D41FC403F
:104B50001C4342464B46A241AB41904699467047A2
:104B6000002200B5203200F010F8080000BD00223D
:104B700000B500F00CF8CA179A4200D100BDD84326
:104B80000121C907414000BD00220B150AD410B510
:104B9000944600F0A7F81414013400DA0021CB1772
:104BA000144C20470020002170476244343A0CD452
:104BB0000C2A07DA04009140904052422032D4403F
:104BC000214310BDD843D94310BD203207D40C4631
:104BD0009440524220321141D040204310BD080081
:104BE000C917203203D452422032104110BD1800A0
:104BF000190010BDAB4B00104A00520D144BD21AD5
:104C000013DDFF2A1EDAD205CB0FDB071A43C300E0
:104C1000400F0903490A084310435B0001D301D048
:104C2000013070474308FBD2704702D0C80FC0075D
:104C300070470A0312130132F8D1420F072AF5D147
:104C4000012200E0FF22C80F00028018C005704753
:104C50008003000000210A00002104E000210A0076
:104C6000C11704E00022002306E0C0460022CB1753
:104C700058405940C01A994130B5184CA21A002921
:104C800003D1010010D00020203A4C1512D104D2DB
:104C9000013A001849414C0DFAD3114CA24204D2FA
:104CA00012058918DB07C91830BDD243520D002008
:104CB0000021F5E703D4013A00184941FBD50B3236
:104CC0004405C00A4D052843C90A640003D00024E6
:104CD00060416141E1E7E0D34408F8E732040000B5
:104CE000FE0700000A0DCC0F531E1B05C91A520502
:104CF00003D3C943404200D30131520D03D0531CAA
:104D0000DB0A07D0121B00206400611C890789128E
:104D1000803A1203014BD21A70470000FF030000D3
:104D2000023225D40C2A1CDA1125AD1A0B002B41B6
:104D3000083207350600EE40904091403143F0CCF8
:104D400063431A1500235A41554356435743BF0244
:104D5000F412760576196741ED177F19801BB9416A
:104D600070470C220020C917490001310905DBE713
:104D70000902030E194300025342203208D40C00EA
:104D800019419440D840204300225041514170477E
:104D90000800C917203B2032F1D500200021002255
:104DA0007047F0B5FFF76AF900F006F800F046F832
:104DB000FFF76AF9F0BD000000B5FFF793FF30A4DC
:104DC000FFF7AEFF00242C4D2C4ED20702D3F64342
:104DD0006D426641520004D2A246A346A846B1469F
:104DE00003E0A046A146AA46B3466EA4A446012706
:104DF0001F26FFF77AFE0137013E212FF9D100BDB2
:104E0000594684B28DB26C43061475430B145E434D
:104E100082B25A43AD18EA1700D7D2431204B6182B
:104E20002A042B0C12197341404649469D009B17DA
:104E3000920F2A43904199413E2218E7494684B295
:104E40008DB26C43061475430B145E4382B25A4311
:104E5000AD18EA1700D7D2431204B6182A042B0C57
:104E600012197341504659469D009B17920F2A43D1
:104E7000504159413E22FAE6BB4DF09DC556F636EB
:104E80007D5100001A61140085880A00FB21190079
:104E9000F0B5FFF7F3F8404D0C002C4001D0AC42C8
:104EA00002D1090D090500201C002C4001D0AC42A4
:104EB00002D11B0D1B0500220026ED02002B04D59C
:104EC00002266B40694000D476424F1904D59942BE
:104ED0000CDD0136694003E0BB4207DA013E6B405E
:104EE000070010003A000F0019003B0040B4002AF0
:104EF0000FD1002B0AD05C006415013409D14C009D
:104F00006415013402D10139013B02E00020002187
:104F10002EE0FFF70BFD3E22FFF72AFE82468B466E
:104F20000020002180460122920791461DA4A4463C
:104F300001271F26FFF7D2FD0137013E212FF9D1AE
:104F40004A4653460C3A01246407002752081B00C6
:104F500005D49341001979416408F7D104E0534125
:104F6000001BB9416408F1D1CE0749104008304315
:104F700040BC002E0AD0094C094D01D5E443ED4355
:104F8000F60701D100196941001969413D22FFF777
:104F90006EFEFFF779F8F0BD0000F07F8D305A8883
:104FA000A8F64332694FBB610567AC1DB16E4096F0
:104FB000FCBAAD0F72DB0BABA66EF50739BD9FE5F2
:104FC00076ABFE034B6297BA5BD5FF01D694DBDD6F
:104FD000AAFAFF005DEAEE5655FF7F006E77B7AA8A
:104FE000EAFF3F00BCBB5555FDFF1F00DEADAAAA7E
:104FF000FFFF0F006F5555F5FFFF0700ABAAAAFE94
:10500000FFFF03005555D5FFFFFF0100ABAAFAFFD4
:10501000FFFF00005555FFFFFF7F0000ABEAFFFFD9
:10502000FF3F000055FDFFFFFF1F0000ABFFFFFF2C
:10503000FF0F0000F5FFFFFFFF070000FFFFFFFF6E
:10504000FF0300000000000000020000000000005C
:1050500000010000000000008000000000000000CF
:1050600040000000000000002000000000000000E0
:105070001000000000000000080000000000000018
:10508000040000000000000002000000000000001A
:10509000010000000000008000000000000000404F
:1050A0000000000051434343C9188C46110C83B2E1
:1050B0004B4310B4040C614392B280B2504362433C
:1050C0001C041B0C001910BC59411304120CC0180D
:1050D000514161447047000048404140484000232E
:1050E0009C46114B5B68184700239C460E4B1B687F
:1050F00018470E4A936F9B0804D200239C460A4B24
:10510000DB681847F0B5146E556E576F166FFFF7D2
:10511000F4FF064A1466556657671667F0BD00230C
:105120009C46014B9B681847840A0020000000D071
:1051300007B548404140484001E0C04607B542003D
:10514000120E03D0FF2A03D1420218D8C00DC005A9
:105150004A00120E03D0FF2A03D14A020FD8C90D0C
:10516000C9050122414005D4414001D5814207BD16
:10517000884207BD0143491801D0C043001807BD4C
:1051800000B5FFF7DBFF804100BDC04600B5FFF76B
:10519000CFFF01D9002000BD012000BD00B5FFF701
:1051A000C7FF804100BD41000A0E80231B067E2AF6
:1051B0000BDD9E3A0BDAC1174002400818435242F9
:1051C000D040490001314843704700207047C00F6C
:1051D000C01801387047C0420CD300B540004008E9
:1051E000002100F011F8002801D4404200BD8020C9
:1051F000000600BD034BDB69FC4618471CDF5D530E
:1052000000100000840A002000239C46014B5B6ACA
:1052100018470000840A0020034BDB6FFC46184748
:105220007CDF755300100000840A002070B5132342
:105230001D782A48FEF796FC0400012D11D0012D9F
:1052400009DDA31E1B789B007F2B40DD80222100FF
:10525000234800F0B5F82348FEF77CFC224B186089
:1052600070BD542201001E4800F0AAF81F4B1A8896
:105270001F4B9A421CD1A7239B011A881D4B9A42AF
:1052800016D11D4B1A881D4B9A4211D11C4B1A88FE
:1052900094239B019A420BD11A4B1A881A4B9A42BB
:1052A00006D11A4B1A681A4B9A4201D1152307E00E
:1052B0001848FDF7F7F999001748094A8850013353
:1052C0001F2BF8D9144A064B1A62DA61B7E7134B61
:1052D000134A42211348FDF74BF9C04653460000DC
:1052E000840A00204C330000DC080020EE29000076
:1052F000C40F0000C20D0000962B0000C0B50000D6
:10530000182B0000CC2A000010B50000FC2C000077
:1053100051ED87643067001029530010A46C001011
:10532000206D0010D86C001007B56046002800D131
:1053300000BE01880A0A0230DF2AFAD1C9B2820807
:1053400004D3028840880004104300E00068024A49
:105350005050039007BD0000840A00200021C215B0
:105360008032803201D0024A10470020704700008E
:10537000CD2A0000C30FDB0741000A0E07D0FF2A29
:1053800008D00909054A89181943400770471900D0
:10539000002070470249C918FAE7000000000038F1
:1053A0000000F07F01480421014B184790020020C3
:1053B000753B0010014B1B6818470000900200204D
:1053C000014B5B68184700009002002010B50C00EC
:1053D000036811002000984710BD0000F8B50700D1
:1053E0000D001600437C002B02D0002400200CE0AE
:1053F00003681100280098472DE03B7C10E0022153
:1054000015483B689847601C0134B44214DA002CFC
:10541000F3DD2B19013B1B780D3B5A425341DBB2A4
:105420002A5D0A2AF0D1002BEED1A042E7DA211A38
:1054300028183B689847E2E7B04203DA311A281887
:105440003B689847002E06DDAD19013D2B780D3BDA
:105450005A4253413B74F8BD9C6D001070B5050075
:105460000368002B16D00C4B1C6805E0290004C90A
:105470002000FFF7B3FFE468002C09D02368002B5D
:10548000F9D0064B1B68002BF0D0A342F3D1EDE717
:1054900000232B6070BDC046B8080020C008002063
:1054A00070B505000C000B68802B05D023685A1CD2
:1054B0002260E418257170BD0800FFF7CFFFF5E703
:1054C00010B582B0D0231B0600241C5701A9074841
:1054D00000F07AFC002806D1019B9C4203D00348CF
:1054E00000F07AFC012002B010BDC046F00600209A
:1054F00010B5024800F050FC10BDC046F006002078
:10550000F0B5C64600B584B001900D0016001C0031
:10551000FFF7D6FF80466B1C05D0002C08D0194F32
:10552000194B1C6807E0019800F0BEFA0500F4E78B
:10553000164FF5E7E468002C16D02368002BF9D04D
:10554000134B1B68002B01D0A342F3D12A00019911
:105550002000B847002EEDD002ABD91D0A230B70F6
:1055600001222000B847E5E74346002B06D1681E1C
:105570008541E8B204B004BC9046F0BDFFF7B8FF27
:10558000F5E7C046CD530010B8080020DD530010E9
:10559000C0080020094A1368002B0BD0834202D0B8
:1055A0000C331A00F7E7002907D1C3681360002302
:1055B000C36002E0002900D010607047B8080020E6
:1055C00010B5064B1C6800E0E468002C04D063684A
:1055D000002BF9D09847F7E710BDC046B808002067
:1055E00070B5050000F060FA0400002301220100FC
:1055F0002800FFF785FFFFF7E3FF200070BD0000E4
:1056000070B5A2B004000E00FFF75AFF0500842217
:10561000002101A8FFF7CEFE3300220001A90848AF
:10562000FEF780FA040001A8FFF718FFFFF7C8FF94
:10563000002D02D1200022B070BDFFF759FFF9E71D
:10564000A15400100FB400B583B004A901C90191A1
:10565000FFF7D6FF03B008BC04B0184710B500F040
:1056600083F810BDF0B583B000251AE06B46073310
:105670000D241C70002403E01F78176001340133EF
:10568000002C1CD19769BF06FCD4F5E71E78166084
:1056900001340133002C03D19669B606FCD4F5E73A
:1056A00001358D4210DA094B1A68465D084BD31854
:1056B0005C4263415B00074C1B5FB342D6D06B4634
:1056C00007331E700024E5E703B0F0BDF4080020A6
:1056D0000080FCBF80090020F0B583B007000020E7
:1056E0000EE013682B7001340135002C03D193694F
:1056F000DB06FCD4F5E76B4607331B7803703000FC
:1057000088420ADA084A1268956910242C4004D1AC
:10571000461C38186B46DD1DE7E7002801D003B0B2
:10572000F0BD0338FBE7C046F408002070B5150053
:105730001C000B4B1860FCF7D5FE002D06DA002C80
:1057400009DA01210748FFF725FF70BD0221280073
:10575000FBF734FBF3E702212000FBF72FFBF0E718
:10576000F4080020A002002010B5064B1B78064B61
:105770001B78E1210123002249020448FFF7D6FFEC
:1057800010BDC046C86F0010CC6F00100040034031
:105790000523CB56002B01DB934211D1094B9C46CC
:1057A0006044434258418000074BC05809790123A7
:1057B0008B40013B9340184043425841C0B2704770
:1057C0000020FCE70000D0AF3808002070B50A794F
:1057D000202A19D8174B9C46604443425841800008
:1057E000154BC45801239340013B497949B2002924
:1057F00010DB08002025AA1A914218DC8B401C42BD
:1058000001D00120404270BD0C4B0D4A40210D4893
:10581000FCF7AEFE2020801A002805DB1A0082402B
:105820001442F0D00138F7E701204042EBE70120B5
:105830004042E8E70000D0AF38080020146E0010A6
:10584000E06D0010406E001070B505000C001600F1
:10585000FFF79EFF002801D0002107E01548FCF764
:1058600021FF8B1912339B005A51013123798B424E
:105870000FD92378627812021A43A3781B041A43C3
:10588000E3781B0613434A009A5A530BE9D1921945
:10589000E7E701229A401300013B074A944665441A
:1058A0006A425541B340054AAD00A9580B43AB507D
:1058B00070BDC046006E00100000D0AF3808002058
:1058C000F8B505000E00FBF7B7FA07003100280015
:1058D000FFF77CFF041E09DB020031002800FFF700
:1058E000B3FF3800FBF7B4FA2000F8BD0148FCF71D
:1058F000D9FEC046006E0010F0B505AC26784D000C
:105900006D18EC000419DC342468A446002E16D06F
:105910001F26052B15D95701A024640527434D00E8
:105920006D18EC0004192500DC352F600D4D354352
:10593000D8342560053B05321F242240E9E70026C4
:10594000E7E79B06520113434C006518EA008218F2
:105950001500DC352B60034B1E43D83216606346BE
:105960002B60F0BD80E00000F0B5046801258D409B
:10597000AC430460002B34D04D006D18EC000419CA
:105980002500C8351E682E6004355E682E6004351B
:105990009E682E60DB68DC3423604C006518EB00E9
:1059A000D033C31880256D012B4380252D061D6043
:1059B0001D60164B8B40836005680E1D01231F0080
:1059C000B7403D43056005680E000836B3402B43E1
:1059D00003601F231A406118CB00C018D830026042
:1059E000F0BD4C006418E300C3181C00C8348025C7
:1059F0006D0225600434F8256D0225600434C0254D
:105A00002D032560DC3300241C60C6E70101010181
:105A1000931E10B50C00222B0DD80A2A04D02100A9
:105A200000F06CF9200010BD0028F8DA2D23404268
:105A30000B700131F4E7002300200B70F3E7C04640
:105A400010B5FFF7E5FF10BD70B50400830717D14F
:105A500002680F4BD31893430E4A150013420FD11F
:105A6000043002680A4BD31893432B4208D1043008
:105A70000268074BD31893432B42F1D000E001306A
:105A80000378002BFBD100F007F8200070BDC04662
:105A9000FFFEFEFE8080808003000A7801311A70CC
:105AA0000133002AF9D1704710B5830727D0037856
:105AB000002B26D00300032102E01A78002A1CD014
:105AC00001330B42F9D119680F4A104C8A188A43E6
:105AD00022420FD1043319680B4A8A188A432242A2
